:020000040800F2
:10000000803A00209D010008153500087F26000871
:1000100011350008150D0008AD01000800000000B2
:1000200000000000000000000000000005010008C2
:10003000B101000800000000490100084135000836
:10004000B7010008B7010008B7010008B7010008B0
:10005000B7010008B7010008B7010008B7010008A0
:10006000B7010008B7010008B7010008B701000890
:10007000B7010008B7010008B7010008B701000880
:10008000B7010008B7010008B7010008B701000870
:10009000B7010008B7010008B7010008B701000860
:1000A000B7010008B7010008B7010008B701000850
:1000B000DD350008B7010008B7010008B7010008E6
:1000C000B7010008B7010008B7010008B701000830
:1000D000B7010008B7010008B7010008B701000820
:1000E000B7010008B7010008B7010008DFF810D019
:1000F00000F000FB00480047D5410008AFF3008046
:10010000803A0020224B19680868B0E8F00F80F3AD
:100110000988BFF36F8F4FF0000080F311884EF015
:100120000D0E70470000000006480068006880F36C
:10013000088862B661B6BFF34F8FBFF36F8F00DFE1
:1001400000BF00BF08ED00E0EFF30980BFF36F8F41
:100150000F4B1A6820E9F00F106008B54FF0BF0090
:1001600080F31188BFF34F8FBFF36F8F04F06EFCE5
:100170004FF0000080F31188BDE808401968086856
:10018000B0E8F00F80F30988BFF36F8F704700BFAE
:100190002C000020EFF305807047000006488047E0
:1001A00006480047FEE7FEE7FEE7FEE7FEE7FEE75C
:1001B000FEE7FEE7FEE7FEE7DB350008ED0000089E
:1001C000202A04DB203A21FA02F00021704721FAAC
:1001D00002F3D040C2F12002914008431946704713
:1001E000D2B201E000F8012B491EFBD27047002279
:1001F000F6E710B513460A4604461946FFF7F0FF26
:10020000204610BD0022CBB20178994200D10246AF
:10021000401C0029F8D1104670472DE9F04D81EAC5
:10022000030404F0004B21F0004514464FF0000A8F
:1002300023F0004150EA050220D054EA01021DD00B
:10024000C5F30A570246C5F31303C1F31300C1F304
:100250000A5640F4801543F48013A7EB0608101BE0
:10026000D64608F2FD3873EB050002D308F1010809
:1002700001E092185B41B8F1000F03DA002001465B
:10028000BDE8F08D00204FF48011064684460EE054
:10029000171B73EB050705D3121B63EB050306431E
:1002A0004CEA010C49084FEA300092185B4150EAD1
:1002B0000107EDD152EA030012D082EA040083EA7A
:1002C0000501084305D0101BAB4106D201220023D3
:1002D00006E000224FF0004302E06FF001025310ED
:1002E0001AEB06004CEB085110EB0A0041EB0B0136
:1002F000BDE8F04D00F058B80EB5C10F80EAE070CF
:100300000844CA07002140F233438DE80E000A4634
:100310000B4600F058F803B000BD30B50B4601465F
:1003200000202022012409E021FA02F59D4205D394
:1003300003FA02F5491B04FA02F52844151EA2F13E
:100340000102F1DC30BD2DE9F05F05460020924648
:100350009B4688460646814640241BE02846414687
:1003600047462246FFF72CFF53465A46C01A914192
:1003700010D311461846224600F0CEF92D1A67EB2D
:1003800001084F4622460120002100F0C5F917EB75
:1003900000094E41201EA4F10104DFDC484631462D
:1003A0002A464346BDE8F09F10B5141E73F10004C1
:1003B00008DA401C41F1000192185B411A4301D157
:1003C00020F0010010BD2DE9F04D92469B4611B181
:1003D000B1FA81F202E0B0FA80F22032904600F0E9
:1003E0009BF904460F4640EA0A0041EA0B015346D6
:1003F0005A46084313D0114653EA010019D0C8F1F8
:1004000040025046FFF7DCFE05460E465046594670
:10041000424600F081F9084305D0012004E020465F
:100420003946BDE8F08D0020054346EAE0762C43CE
:1004300037430A986305E40AA0EB08000022FD0A8E
:1004400044EA47540A3002D500200146E9E7010595
:1004500010196941DDE9084500196941BDE8F04D11
:10046000A2E72DE9FE4F804681EA0300C00F0C464B
:10047000009021F0004123F00045B8EB0200A941B3
:1004800005D24046214690461C460B46024623F0C4
:100490000040104347D0270DC7F30A00C3F30A51A9
:1004A0000290401A019040286BDAC3F3130040F425
:1004B000801B0098924620B10023D2EB030A63EB25
:1004C0000B0B01985946C0F14002504600F024F948
:1004D00006460D4650465946019A00F02CF910EB9D
:1004E00008006141002487EA115284EAE7731A4345
:1004F00040D0009A62B3019A012A4FEA075215DCF4
:10050000001B61EB02014FF0004202EA0752CDE905
:100510000042001C41F5801132462B46FFF753FF85
:1005200003B0BDE8F08F40462146F9E7001B61EBC0
:100530000201001C41F5801300185B412018A2F550
:10054000001747EB030140EAD570B6196D4111E081
:100550006D084FEA360645EAC0754FEA0752001BA0
:1005600061EB0201001C41F5801149084FEA30009F
:100570000019514132462B4603B0BDE8F04FFFF75A
:1005800013BF0098012240000023D0EB020263EB6E
:10059000E073009821464FEAE074B8EB000061EB8D
:1005A0000401E9E783F000435BE781F0004158E78D
:1005B0002DE9FE4F81EA030404F0004421F00041DC
:1005C00000944FF0000B23F0004350EA01045ED08A
:1005D00052EA03045BD0C3F30A54C1F30A552C4416
:1005E000A4F2F3340194A0FB0254C1F3130141F4CB
:1005F0008011C3F3130343F4801301FB024400FB97
:10060000034E840A970A44EA815447EA8357A4FBBD
:10061000076802958D0A05FB07854FEA932C04FBBA
:100620000C542705029D4FEA065847EA1637B5EBEA
:1006300008056EEB070C870E920E47EA811742EA17
:100640008312A7FB0201B6EB0B0164EB00042B0D38
:1006500043EA0C335E1844EB1C50DA465146E7FB84
:100660000201C5F313044FEA0B3343EA14534FEA74
:100670000432019C43EA0603A4F10C040294009C9A
:10068000CDE900B4FFF79FFE03B0BDE8F08F002076
:100690000146F9E7C1F30A52C1F3130140F2FF33F7
:1006A00041F480119A4202DA00200146704740F27C
:1006B00033439A42A2F2334202DC5242FFF780BD3A
:1006C00000F02AB830B5041E71F1000404DB4FF0CD
:1006D0000044404264EB0101141E73F1000405DB89
:1006E0001C464FF00043524263EB0403994208BF9B
:1006F000904230BD064C074D06E0E06840F0010333
:1007000094E8070098471034AC42F6D3FFF7F2FCA8
:10071000D0690008F0690008202A04DB203A00FABA
:1007200002F1002070479140C2F1200320FA03F348
:10073000194390407047202A06DBCB17203A41FA34
:1007400002F043EAE07306E041FA02F3D040C2F15E
:1007500020029140084319467047000070B586B0EA
:10076000002400200590012205A9502002F0CCFAB7
:1007700000200490012204A9592002F0C5FA9DF836
:10078000140000F00C0040009DF8101040EA6114C5
:1007900004F26D10FFF7B0FD05460022244BFFF771
:1007A0003CFD244A03C201222349512002F0ACFA45
:1007B0002F2122A0FFF726FD28B12F211FA0FFF730
:1007C00021FD401C00E01DA006465C21FFF71AFD3C
:1007D000002811D02F2119A0FFF714FD28B12F21D7
:1007E00016A0FFF70FFD401C00E014A006465C2198
:1007F000FFF708FD401C0BE02F2110A0FFF702FDC2
:1008000028B12F210DA0FFF7FDFC401C00E00BA03C
:100810000546094890F900000649029003C92422C0
:10082000CDE9000129460EA003F01CF806B070BD0A
:1008300000408F4020000020280000202E2E5C4425
:100840006576656C6F706D656E745C4170705C414F
:1008500070705F426174746572792E6300000000ED
:100860005B25733A25645D20735F6761696E203D87
:1008700020252E32662C20735F6F666673657420A8
:100880003D2025640A00000010B5FFF767FF00F067
:1008900001F810BD10B52A48007920F01000103082
:1008A000274908710846007920F0080008300871CF
:1008B00008460179042002F021FB2148407920F00C
:1008C000400040301E4948710846407920F002003F
:1008D000801C48710846407920F00100401C487196
:1008E00008464179052002F009FB1548807920F07F
:1008F00080008030124988710846807920F0180005
:10090000103088710846807920F00700C01D88717A
:1009100008468179062002F0F1FA0948C07920F0F2
:10092000700070300649C8710846C07920F00F0089
:100930000F30C8710846C179072002F0DFFA10BDF8
:100940007C05002038B5002402F05EFB00250CE099
:10095000012010232A4600210090204602F090FC3E
:10096000681CC5B204F11000C4B2032DF0DB0120F5
:1009700010230DA200210090204602F0E1FC04F1BA
:100980001800C4B203250CE0012010232A460021E0
:100990000090204602F074FC681CC5B204F11000FF
:1009A000C4B2052DF0DB38BD424D530010B502F046
:1009B000A3FB10BD2F211EA0FFF724FC28B12F217F
:1009C0001BA0FFF71FFC401C00E019A005465C219E
:1009D000FFF718FC002811D02F2115A0FFF712FCFB
:1009E00028B12F2112A0FFF70DFC401C00E010A041
:1009F00005465C21FFF706FC401C0BE02F210CA0F4
:100A0000FFF700FC28B12F2109A0FFF7FBFB401CDA
:100A100000E007A00446522221460DA002F022FF6A
:100A2000FFF732FF03E04FF47A7003F0C7FFFAE7F5
:100A30002E2E5C446576656C6F706D656E745C41DE
:100A400070705C4170705F4D61696E2E63000000D4
:100A50005B25733A25645D204170705F4D61696E5E
:100A60005F42617474657279205461736B205374B2
:100A70006172740A000000002F2121A0FFF7C2FB61
:100A800028B12F211EA0FFF7BDFB401C00E01CA0D9
:100A900005465C21FFF7B6FB002811D02F2118A0D6
:100AA000FFF7B0FB28B12F2115A0FFF7ABFB401CCF
:100AB00000E013A005465C21FFF7A4FB401C0BE0FF
:100AC0002F210FA0FFF79EFB28B12F210CA0FFF7CD
:100AD00099FB401C00E00AA004463722214610A0E2
:100AE00002F0C0FEFFF72EFF08E003F013FFFFF750
:100AF0005DFF03F021FF642003F060FFF5E70000D5
:100B00002E2E5C446576656C6F706D656E745C410D
:100B100070705C4170705F4D61696E2E6300000003
:100B20005B25733A25645D204170705F4D61696E8D
:100B30005F446973706C6179205461736B205374E6
:100B40006172740A000000002DE9FC4103F0E2FE2E
:100B50004648052100234FF40072CDE9001044A15E
:100B6000484803F0C1FF04464748022100234A02D7
:100B7000CDE9001045A14A4803F0B6FF0546012C17
:100B800038D1012D36D12F2146A0FFF73BFB28B1EC
:100B90002F2144A0FFF736FB401C00E041A0074690
:100BA0005C21FFF72FFB002811D02F213DA0FFF77C
:100BB00029FB28B12F213BA0FFF724FB401C00E0BC
:100BC00038A007465C21FFF71DFB401C0BE02F21DE
:100BD00034A0FFF717FB28B12F2132A0FFF712FB3B
:100BE000401C00E02FA006462222314635A002F02C
:100BF00039FE34E02F212BA0FFF704FB28B12F2171
:100C000028A0FFF7FFFA401C00E026A007465C2161
:100C1000FFF7F8FA88B12F2122A0FFF7F3FA28B1E5
:100C20002F2120A0FFF7EEFA401C00E01DA0074690
:100C30005C21FFF7E7FA401C0BE02F2119A0FFF71A
:100C4000E1FA28B12F2117A0FFF7DCFA401C00E0E1
:100C500014A006462722314624A002F003FE03F02A
:100C60006BFE03F0C5FEBDE8FC810000180000200B
:100C70004170705F4D61696E5F446973706C61793A
:100C800000000000790A00081C0000204170705F1D
:100C90004D61696E5F426174746572790000000095
:100CA000B50900082E2E5C446576656C6F706D6525
:100CB0006E745C4170705C4170705F4D61696E2E46
:100CC000630000005B25733A25645D204170705F0E
:100CD0004D61696E205461736B2043726561746568
:100CE00020537563636573730A0000005B25733AD4
:100CF00025645D204170705F4D61696E20546173A1
:100D00006B20437265617465204661696C65640A95
:100D10000000000000BFFEE772B600BFFEE710B59E
:100D200004460CB9012010BD607920B90020207163
:100D3000204600F005F8012060710020F3E7000074
:100D400008B5094A016891420DD100BF07494969B8
:100D500041F04001054A51611146496901F04001E5
:100D6000009100BF00BF08BD0030024000100240EB
:100D700070B5044600F0A6F906462546681C10B179
:100D800004480078054400BF00F09CF9801BA8428D
:100D9000FAD370BD100000202DE9F8470346002269
:100DA00094466EE14FF0010808FA02F4D1F8008091
:100DB00008EA0400A0427DD1DFF8DCA2D1F804806B
:100DC000A8EB0A09D0453AD014DCB8F1030F50D093
:100DD00009DCB8F1000F31D0B8F1010F1CD0B8F127
:100DE000020F49D120E0B8F1110F18D0B8F1120F5D
:100DF00042D11EE0B9F5881F25D006DCB9F5803F49
:100E000020D0B9F5801F37D11AE0B9F5001F18D0EE
:100E1000B9F5041F30D117E0D1F80CC02DE0D1F89E
:100E20000C8008F1040C28E0D1F80C8008F1080CC3
:100E300023E0D1F80C8008F10C0C1EE000BF00BFCD
:100E400000BF00BF00BF00BFD1F80880B8F1000F9D
:100E500002D14FF0040C0BE0D1F80880B8F1010F7B
:100E600003D14FF0080C1C6102E04FF0080C5C61EC
:100E700003E04FF0000C00E000BF00BFFF2801D8E6
:100E8000984601E003F104084646FF2802D84FEADD
:100E9000820803E0A2F108084FEA88084746D6F81E
:100EA00000804FF00F0909FA07F928EA09080CFA3F
:100EB00007F900E088E048EA0908C6F80080D1F8A0
:100EC000048008F08058B8F1805F7DD100BFDFF862
:100ED000CC81D8F8188048F00108DFF8C091C9F833
:100EE0001880C846D8F8188008F00108CDF80080AE
:100EF00000BF00BF4FEAB9384FEA920958F82950AD
:100F00004FEA82784FEA18794FF00F0808FA09F88B
:100F100025EA0805DFF88881434502D14FF0000833
:100F200016E0DFF88081434502D14FF001080FE061
:100F3000DFF87481434502D14FF0020808E0DFF882
:100F40006C81434502D14FF0030801E04FF00408E3
:100F50004FEA82794FEA197908FA09F848EA050553
:100F6000DFF84C814FEA920948F82950D1F8048003
:100F700008F48018B8F5801F0AD1DFF83881D8F856
:100F8000008048EA0008DFF82C91C9F8008009E0E9
:100F9000DFF82081D8F8008028EA0008DFF81491F3
:100FA000C9F80080D1F8048008F40018B8F5001FD3
:100FB00010D1DFF8008108F10408D8F8008048EA71
:100FC0000008DFF8F09000E05AE009F10409C9F8E0
:100FD00000800DE0DFF8DC8008F10408D8F800801C
:100FE00028EA0008DFF8CC9009F10409C9F800806C
:100FF000D1F8048008F40038B8F5003F0ED1DFF8CE
:10100000B480A8F10408D8F8008048EA0008DFF8A6
:10101000A490A9F10409C9F800800DE0DFF89480DC
:10102000A8F10408D8F8008028EA0008DFF88490C6
:10103000A9F10409C9F80080D1F8048008F48038C7
:10104000B8F5803F0ED1DFF86C80A8F10808D8F819
:10105000008048EA0008DFF85C90A9F10809C9F8A7
:1010600000800DE0DFF84C80A8F10808D8F8008077
:1010700028EA0008DFF83C90A9F10809C9F80080C7
:10108000521CD1F8008028FA02F8B8F1000F7FF462
:1010900089AEBDE8F8870000000011100010024082
:1010A00000080140000C0140001001400014014004
:1010B00008000140080401400AB1016101E00B048D
:1010C0000361704701480068704700000800002075
:1010D00070B504460CB9012070BD94F83D0028B9E4
:1010E000002084F83C00204600F0FEFB242084F819
:1010F0003D002068006820F0010021680860206839
:10110000006840F40040216808602068006820F40E
:1011100000402168086000F015FE05465C496068E3
:10112000884206D85B48854201D2012007E00020B2
:1011300005E05948854201D2012000E00020012845
:1011400000D1C9E75548B5FBF0F62068406820F0AB
:101150003F003043216848604D496068884201D8AB
:10116000701C07E04FF4967070434FF47A71B0FB37
:10117000F1F0401C2168096A21F03F010843216811
:10118000086243496068884214D8681E6168490053
:10119000B0FBF1F0401CC0F30B00042801D2042086
:1011A0003DE0681E61684900B0FBF1F0401CC0F3EF
:1011B0000B0034E0A06838B9681E616801EB41019A
:1011C000B0FBF1F0401C0AE0681E616801EBC1024F
:1011D00002EB0111B0FBF1F0401C40F48040C0F381
:1011E0000B0008B901201AE0A06848B9681E6168C0
:1011F00001EB4101B0FBF1F0401CC0F30B000CE02F
:10120000681E616801EBC10202EB0111B0FBF1F055
:10121000401CC0F30B0040F4804040F400402168C3
:10122000C9694CF6FF72914308432168C861D4E94B
:10123000070108432168096821F0C00108432168BB
:101240000860D4E9031008432168896848F2FF3236
:101250009143084321688860D4E905010843216867
:10126000C96821F0FF0108432168C8602068006850
:1012700040F001002168086000202064202084F8EC
:101280003D000020206384F83E0000BF24E70000FA
:10129000A086010080841E0000093D0040420F002E
:1012A0002DE9F8430446894616461F46DDF820809E
:1012B000FFF708FF054694F83D0020287ED119234A
:1012C000012251492046009501F0ADFB10B10220EA
:1012D000BDE8F88300BF94F83C00012801D102204A
:1012E000F6E7012084F83C0000BF2068006800F0A9
:1012F000010028B92068006840F0010021680860FA
:101300002068006820F4006021680860212084F8CB
:101310003D00102084F83E0000202064666267854E
:10132000608D20853948E0622B464246494620467A
:1013300001F0C6F908B10120CAE700BF0020009003
:1013400020684069009020688069009000BF00BF5D
:1013500044E02A464146204601F086FC50B1206C0C
:10136000042805D12068006840F4007021680860F6
:101370000120ADE7606A007821680861606A401C5E
:101380006062608D401E6085208D401E2085206833
:101390004069C0F3800070B1208D60B1606A007850
:1013A00021680861606A401C6062608D401E608533
:1013B000208D401E20852A46414600E022E020463E
:1013C00001F0FEFA50B1206C042805D120680068B5
:1013D00040F4007021680860012079E7208D002822
:1013E000B7D12068006840F40070216808602020B0
:1013F00084F83D00002084F83E0000BF84F83C00E3
:1014000000BF65E7022063E7020010000000FFFF55
:101410002DE9FE4F04460F4690469946DDE90CAB98
:101420000E9E00200290FFF74DFE054694F83D0009
:10143000202872D119230122CE492046009501F0BF
:10144000F2FA10B10220BDE8FE8F00BF94F83C0014
:10145000012801D10220F6E7012084F83C0000BFFA
:101460002068006800F0010028B92068006840F09A
:101470000100216808602068006820F4006021688D
:101480000860222084F83D00402084F83E000020BF
:101490002064C4F824A0A4F82AB0608D2085B64842
:1014A000E0624B46424639462046CDE9006501F0F0
:1014B00067F908B10120C6E7208D88B900BF002078
:1014C000019020684069019020688069019000BF08
:1014D00000BF2068006840F40070216808604BE09D
:1014E000208D01281AD12068006820F480602168CE
:1014F000086072B600BF002001902068406901902A
:1015000020688069019000BF00BF2068006840F437
:1015100000702168086062B62EE029E1208D022863
:1015200019D12068006840F400602168086072B634
:1015300000BF002001902068406901902068806908
:10154000019000BF00BF2068006820F4806021681F
:10155000086062B610E02068006840F4806021688E
:10156000086000BF00200190206840690190206859
:101570008069019000BF00BFEBE0208D03287DD87B
:10158000208D012815D12A463146204601F027FB3F
:1015900008B1012057E720680069616A0870606A35
:1015A000401C6062208D401E2085608D401E60853D
:1015B000CFE0208D02282CD1334600226F492046EF
:1015C000009501F030FA08B101203CE772B62068BE
:1015D000006840F400702168086020680069616A52
:1015E0000870606A401C6062208D401E2085608DFE
:1015F000401E608562B620680069616A0870606A92
:10160000401C6062208D401E2085608D401E6085DC
:101610009FE03346002259492046009501F003FA25
:1016200008B101200FE72068006820F4806021687D
:10163000086072B620680069616A0870606A401CC0
:101640006062208D401E2085608D401E60854C4864
:1016500000681921B0FBF1F04FF47A71B0FBF1F0A2
:10166000C0EBC00000EB8000029000BF0298401E5B
:1016700002900298A8B90020206300E039E0202001
:1016800084F83D00002084F83E00206C40F02000EB
:10169000206462B600BF002084F83C0000BF012037
:1016A000D1E620684069C0F380000028DED02068C1
:1016B000006840F400702168086020680069616A71
:1016C0000870606A401C6062208D401E2085608D1D
:1016D000401E608562B620680069616A0870606AB1
:1016E000401C6062208D401E2085608D401E6085FC
:1016F0002FE02A463146204601F071FA08B1012058
:10170000A1E620680069616A0870606A401C606236
:10171000208D401E2085608D401E608520684069B8
:10172000C0F38000A8B1208D032805D1206800688F
:1017300020F480602168086020680069616A087090
:10174000606A401C6062208D401E2085608D401EB6
:101750006085208D00287FF410AF202084F83D00A4
:10176000002084F83E0000BF84F83C0000BF6AE619
:10177000022068E6020010000000FFFF04000100E4
:10178000140000202DE9FC5F04460F469046994660
:10179000DDE90CAB0E9EFFF795FC054694F83D0085
:1017A00020287DD1192301224D492046009501F0C2
:1017B0003AF910B10220BDE8FC9F00BF94F83C004C
:1017C000012801D10220F6E7012084F83C0000BF87
:1017D0002068006800F0010028B92068006840F027
:1017E0000100216808602068006820F4006021681A
:1017F0000860212084F83D00402084F83E0000204D
:101800002064C4F824A0A4F82AB0608D208535484F
:10181000E0624B46424639462046CDE9006501F07C
:101820005FF808B10120C6E731E02A46314620467C
:1018300001F01AFA50B1206C042805D12068006824
:1018400040F40070216808600120B4E7606A007805
:1018500021680861606A401C6062208D401E2085FE
:10186000608D401E608520684069C0F3800070B1C3
:10187000208D60B1606A007821680861606A401C50
:101880006062208D401E2085608D401E6085208D09
:101890000028CAD12A463146204601F091F800E0DE
:1018A0001CE050B1206C042805D12068006840F489
:1018B00000702168086001207DE72068006840F41E
:1018C000007021680860202084F83D00002084F822
:1018D0003E0000BF84F83C0000BF6CE702206AE7CE
:1018E000020010000000FFFF10B586B00446002083
:1018F000029003900490059016492068884226D1F2
:1019000000BF1548806940F0080013498861084607
:10191000806900F00800019000BF00BF4FF44060F4
:101920000290122003900320059002A90B48FFF7B4
:1019300033FA00BF0848C06940F480000649C86116
:101940000846C06900F48000019000BF00BF06B0E7
:1019500010BD00000058004000100240000C014083
:101960000348006803490978084401490860704742
:10197000080000201000002010B50848006840F062
:10198000100006490860032000F0DAF8002000F09B
:1019900007F800F05DF8002010BD000000200240B4
:1019A0002DE9F04188B004460027B846002600BF64
:1019B0002348C06940F001002149C8610846C06958
:1019C00000F00100019000BF00BF02A903A800F0D1
:1019D00091F9069F1FB900F0B5F9054602E000F045
:1019E000B1F945001748B5FBF0F0A0F101084FF040
:1019F00080401549086040F2E7311348C160C0F8E3
:101A00000480002101618160816100F027FC0646AD
:101A100096B90D4800F056FC06466EB91C2000F041
:101A200041F8102C07D2002221461C2000F04AF871
:101A30000648046000E00126304608B0BDE8F081A9
:101A40000010024040420F00340100200C00002032
:101A500008B500BF1148806940F001000F49886156
:101A60000846806900F00100009000BF00BF00BF81
:101A70000846C06940F08050C8610846C06900F05F
:101A80008050009000BF00BF00BF0549486820F0AB
:101A9000E06040F00070486000BF08BD00100240E8
:101AA0000000014001460846002809DB00F01F0342
:101AB00001229A4043099B0003F1E023C3F800216F
:101AC00000BF70472DE9F05F80460D46164600279F
:101AD00001F0D8FE074639462A46334601F0070092
:101AE000C0F1070ABAF1040F02D94FF0040A01E06D
:101AF000C0F1070AD14600F1040ABAF1070F02D279
:101B00004FF0000A01E0A0F1030AD4464FF0010AA9
:101B10000AFA09FAAAF1010A0AEA020A0AFA0CFA0E
:101B20004FF0010B0BFA0CFBABF1010B0BEA030BB3
:101B30004AEA0B042146404601F0ACFEBDE8F09FA6
:101B400000BF00F00702064B19684FF6FF0319406B
:101B5000044B0B4343EA0221014B196000BF70475D
:101B60000CED00E00000FA0570B504460D460CB916
:101B7000012070BD5A48006800F00700A8420ED24C
:101B80005748006820F00700284355490860084678
:101B9000006800F00700A84201D00120E9E72078A2
:101BA00000F0020002281DD1207800F00400042873
:101BB00005D14C48406840F4E0604A4948602078CC
:101BC00000F00800082805D14648406840F46050FD
:101BD000444948604348406820F0F000A168084349
:101BE00040494860207800F0010078B3606801281F
:101BF00006D13C48006800F4003090B90120B8E7F5
:101C00006068022806D13748006800F0007040B9CB
:101C10000120AEE73348006800F0020008B9012057
:101C2000A7E73048406820F00300616808432D4969
:101C30004860FFF747FA064609E0FFF743FA801BC2
:101C400041F28831884202D9032092E707E0254813
:101C5000406800F00C006168B0EB810FEDD12048C6
:101C6000006800F00700A8420ED91D48006820F067
:101C7000070028431A4908600846006800F007007A
:101C8000A84201D0012074E7207800F00400042865
:101C900007D11448406820F4E060E1680843114926
:101CA0004860207800F00800082808D10D484068F6
:101CB00020F46050216940EAC1000A49486000F000
:101CC00061F808494968C1F30311074A515CC840EB
:101CD0000649086006480068FFF762FE002048E7F2
:101CE00000200240001002404E4E00081400002068
:101CF0000C0000200F2202600D4A526802F003021D
:101D000042600B4A526802F0F0028260084A526850
:101D100002F4E062C260064A526802F46052D208DD
:101D20000261044A126802F007020A60704700006C
:101D30000010024000200240014800687047000087
:101D40001400002000B5FFF7F7FF04494968C1F30C
:101D50000221034A515CC84000BD0000001002404F
:101D60005E4E000800B5FFF7E7FF04494968C1F37C
:101D7000C221034A515CC84000BD0000001002406F
:101D80005E4E000870B500210022002400230020D0
:101D9000134D696801F00C05F5B1042D02D0082D32
:101DA00019D101E00F4819E00F4DC1F38346AB5D37
:101DB00001F4803555B10A4D6D68C5F340450B4EB1
:101DC000725D084D5D43B5FBF2F402E0084D03FB84
:101DD00005F4204602E000BF024800BF00BF70BD0E
:101DE0000010024000127A003C4E00084C4E0008E1
:101DF00000093D00F8B504460CB90120F8BD207873
:101E000000F00100002878D0F848406800F00C008D
:101E100004280CD0F548406800F00C00082811D1C7
:101E2000F248406800F48030B0F5803F0AD1EF48B6
:101E3000006800F4003000285FD0606800285CD1A2
:101E40000120DBE700BF6068B0F5803F06D1E748BE
:101E5000006840F48030E549086028E0606858B9BF
:101E6000E248006820F48030E049086008460068D5
:101E700020F4802008601AE06068B0F5A02F0BD134
:101E8000DA48006840F48020D849086008460068B5
:101E900040F4803008600AE0D448006820F48030C4
:101EA000D24908600846006820F48020086000BF1E
:101EB000606888B1FFF706F9054606E0FFF702F90A
:101EC000401B642801D9032098E7C848006800F443
:101ED00000300028F2D010E0FFF7F4F8054606E0E5
:101EE000FFF7F0F8401B642801D9032086E7BF48BC
:101EF000006800F400300028F2D1207800F00200E1
:101F0000022857D1B948406800F00C0050B1B748DA
:101F1000406800F00C00082818D1B448406800F46C
:101F2000803098B9B148006800F0020020B1206903
:101F3000012801D0012061E7AC48006820F0F800DA
:101F4000616940EAC100A949086033E02069E8B14D
:101F50000120A7490860FFF7B5F8054606E0FFF73E
:101F6000B1F8401B022801D9032047E79F480068C9
:101F700000F002000028F2D09C48006820F0F80031
:101F8000616940EAC1009949086013E0002098495E
:101F90000860FFF797F8054606E0FFF793F8401B47
:101FA000022801D9032029E79048006800F00200C8
:101FB0000028F2D1207800F0080008282DD1A0696F
:101FC000B8B101208B490860FFF77CF8054606E0B0
:101FD000FFF778F8401B022801D903200EE7834859
:101FE000406A00F002000028F2D0012001F094FACB
:101FF00013E000207F490860FFF764F8054606E01B
:10200000FFF760F8401B022801D90320F6E6774865
:10201000406A00F002000028F2D1207800F00400AD
:10202000042873D100277148C06900F0805070B94E
:1020300000BF6E48C06940F080506C49C8610846D6
:10204000C06900F08050009000BF00BF01276A48BF
:10205000006800F48070B0B96748006840F4807090
:1020600065490860FFF72EF8054606E0FFF72AF8F5
:10207000401B642801D90320C0E65F48006800F4D3
:1020800080700028F2D000BFE068012806D15748D0
:10209000006A40F001005549086227E0E06858B93D
:1020A0005248006A20F00100504908620846006A60
:1020B00020F00400086219E0E06805280BD14B48C5
:1020C000006A40F00400494908620846006A40F08E
:1020D000010008620AE04548006A20F00100434917
:1020E00008620846006A20F00400086200BFE06849
:1020F000A0B1FEF7E7FF054609E0FEF7E3FF401B4E
:1021000041F28831884202D9032077E622E037483D
:10211000006A00F002000028EFD012E0FEF7D2FFC4
:10212000054608E0FEF7CEFF401B41F288318842A9
:1021300001D9032062E62D48006A00F00200002861
:10214000F0D1012F05D12948C06920F080502749DE
:10215000C86100BFE069C8B32448406800F00C00C3
:10216000082860D0E069022848D10020204908668C
:10217000FEF7A8FF054606E0FEF7A4FF401B022875
:1021800001D903203AE61948006800F000700028E1
:10219000F2D1206AB0F5803F07D11448406820F49E
:1021A0000030A168084311494860D4E90801084398
:1021B0000E49496821F4741108430C494860012014
:1021C0000B490866FEF77EFF054607E03DE0FEF797
:1021D00079FF401B022801D903200FE6034800685D
:1021E00000F000700028F2D02FE000000010024044
:1021F0000000424280044242007000400020144926
:102200000866FEF75FFF054606E0FEF75BFF401B32
:10221000022801D90320F1E50E48006800F00070A3
:102220000028F2D111E0E069012800D1E6E5094873
:10223000466806F48031206A814204D106F47011A8
:10224000606A814201D00120D8E50020D6E5000077
:1022500000004242001002407047704710B504462B
:102260000CB9012010BD94F83D0028B9002084F875
:102270003C00204600F025F8022084F83D00211D96
:10228000206801F0B3F9012084F8460000BF84F80B
:102290003E0001213F2001554020015541200155BC
:1022A00000BF00BF012084F84200432001554420B4
:1022B00001554520015500BF012084F83D00002054
:1022C000D0E77047014691F83D00012801D0012078
:1022D0007047022081F83D000868C06840F00100A6
:1022E0000B68D860124B086898420BD00868B0F1B0
:1022F000804F07D00F4B0868984203D00E4B0868F8
:1023000098420CD10868806800F00702062A0CD0B9
:102310000868006840F001000B68186005E0086874
:10232000006840F001000B6818600020D0E7000052
:10233000002C01400004004000080040704770B5C8
:1023400004462068C5682068066906F00200022875
:1023500019D105F00200022815D1401F216808613B
:10236000012020772068806900F0030018B1204622
:10237000FFF7E4FF05E0204600F097F8204600F064
:1023800095F80020207706F00400042819D105F004
:102390000400042815D1C043216808610220207779
:1023A0002068806900F4407018B12046FFF7C6FF2E
:1023B00005E0204600F079F8204600F077F800208C
:1023C000207706F00800082819D105F00800082831
:1023D00015D1C04321680861042020772068C069B6
:1023E00000F0030018B12046FFF7A8FF05E02046E3
:1023F00000F05BF8204600F059F80020207706F046
:102400001000102819D105F01000102815D1C04374
:1024100021680861082020772068C06900F44070B6
:1024200018B12046FFF78AFF05E0204600F03DF88E
:10243000204600F03BF80020207706F0010048B16C
:1024400005F0010030B16FF00100216808612046FD
:1024500000F02DF806F08000802809D105F08000FA
:10246000802805D1C043216808612046FFF7F4FEAB
:1024700006F04000402809D105F04000402805D171
:10248000C04321680861204600F01AF806F02000D9
:10249000202809D105F02000202805D1C04321685B
:1024A00008612046FFF7D9FE70BD7047704710B530
:1024B00004462068B0F1804F01D1FFF751FA10BDFA
:1024C000704710B504460CB9012010BDA06900B1D9
:1024D00000E000BF94F8410028B9002084F84000D3
:1024E000204600F029F8242084F841002068C068C4
:1024F00020F400502168C860204601F0EFF8206801
:10250000006920F49040216808612068406920F04B
:102510002A00216848612068C06840F400502168A2
:10252000C86000206064202084F8410084F84200E4
:102530000020606300BFC8E710B586B004460020E5
:1025400002900390049005901A49206888422ED189
:1025500000BF1948806940F48040174988610846E7
:10256000806900F48040019000BF00BF00BF0846B2
:10257000806940F0040088610846806900F004002A
:10258000019000BF00BF4815029002200390032075
:10259000059002A90948FEF7FFFB4FF48060029006
:1025A00000200390049002A90448FEF7F5FB06B052
:1025B00010BD00000038014000100240000801403A
:1025C0002DE9F84F04460E46174699464FF0000A8B
:1025D00094F84100202850D106B117B90120BDE878
:1025E000F88F00206064212084F84100FEF76AFD26
:1025F0008246A784E784A068B0F5805F04D1206993
:1026000010B90025B04602E035464FF000081EE044
:102610005346002280212046CDF8009001F0DCF8DE
:1026200020B1202084F841000320D8E745B9B8F84C
:102630000000C0F308002168486008F1020803E0C8
:102640002878216848606D1CE08C401EE084E08C96
:102650000028DDD15346002240212046CDF80090CD
:1026600001F0BAF820B1202084F841000320B6E739
:10267000202084F841000020B1E70220AFE700BF2E
:10268000FEE7014608684069C0F38020B0B16FF4EE
:1026900080600A68506100200863202081F83D00B6
:1026A000002081F83E00086C40F00400086400BF80
:1026B000002081F83C0000BF012070470020FCE7AB
:1026C0002DE9F84304460D4617469846E66A082E5B
:1026D00004D0012E02D016F5803F06D12068006894
:1026E00040F480702168086008E0206B122805D152
:1026F0002068006840F48070216808603B46002232
:102700004FF001112046CDF8008000F08CF960B147
:102710002068006800F48070B0F5807F02D14FF42B
:10272000007020640320BDE8F8832069B0F5804F75
:1027300004D105F0FE002168086112E005F4407044
:10274000F02141EAE0102168086143463A460B490E
:10275000204600F0C7F908B10120E4E7E8B221689B
:10276000086143463A460549891F204600F0BAF9F8
:1027700008B10120D7E70020D5E7000008000100DC
:102780002DE9F84304460F4615469946DDE90886CB
:102790002068006840F48060216808602068006854
:1027A00040F4807021680860434600224FF0011118
:1027B0002046009600F037F960B12068006800F408
:1027C0008070B0F5807F02D14FF400702064032048
:1027D000BDE8F88307F0FE002168086133464246F1
:1027E0003E49204600F07EF908B10120F0E700BF25
:1027F0000020009020684069009020688069009067
:1028000000BF00BF32464146204600F02DFA50B1CD
:10281000206C042805D12068006840F4007021680D
:1028200008600120D4E7B9F1010F03D1E8B22168B3
:10283000086117E0C5F30720216808613246414668
:10284000204600F011FA50B1206C042805D1206810
:10285000006840F40070216808600120B8E7E8B221
:102860002168086132464146204600F0FDF950B12A
:10287000206C042805D12068006840F400702168AD
:1028800008600120A4E72068006840F48070216897
:102890000860434600224FF001112046009600F0E8
:1028A000C2F858B12068006800F48070B0F5807FED
:1028B00002D14FF400702064032089E7F8B240F0A1
:1028C000010021680861334642460449204600F071
:1028D00009F908B101207BE7002079E70200010037
:1028E0002DE9F8430446884615469946DDE9086710
:1028F0002068006840F48070216808603346002238
:102900004FF001112046009700F08DF860B120686B
:10291000006800F48070B0F5807F02D14FF4007041
:1029200020640320BDE8F88308F0FE0021680861F8
:102930003B4632462149204600F0D4F808B1012038
:10294000F0E700BF002000902068406900902068F8
:102950008069009000BF00BF3A463146204600F033
:1029600083F950B1206C042805D12068006840F438
:102970000070216808600120D4E7B9F1010F03D18C
:10298000E8B22168086117E0C5F3072021680861F3
:102990003A463146204600F067F950B1206C0428D1
:1029A00005D12068006840F40070216808600120AB
:1029B000B8E7E8B2216808610020B3E7020001002F
:1029C00070B504460D46164625E02046FFF759FE31
:1029D00008B1012070BD681CE8B1FEF773FB801BD5
:1029E000A84200D8BDB920684069C0F3800090B902
:1029F00000202063202084F83D00002084F83E0061
:102A0000206C40F02000206400BF002084F83C00CF
:102A100000BF0120DEE720684069C0F38000002885
:102A2000D3D00020D6E72DE9F04104460D461746E5
:102A30001E46DDF8188038E0701CA8B3FEF742FB94
:102A4000A0EB0800B04200D876BBC5F307400128D0
:102A50000AD120684069A9B20840A9B2884201D1D0
:102A600001200BE0002009E020688069A9B208403D
:102A7000A9B2884201D1012000E00020B84214D15F
:102A800000202063202084F83D00002084F83E00D0
:102A9000206C40F02000206400BF002084F83C003F
:102AA00000BF0120BDE8F081FFE7C5F30740012822
:102AB0000AD120684069A9B20840A9B2884201D170
:102AC00001200BE0002009E020688069A9B20840DD
:102AD000A9B2884201D1012000E00020B842ABD069
:102AE0000020DFE72DE9F04104460D4616461F465B
:102AF00058E020684069C0F38020E8B12068006891
:102B000040F40070216808606FF4806021684861BB
:102B100000202063202084F83D00002084F83E003F
:102B2000206C40F00400206400BF002084F83C00CA
:102B300000BF0120BDE8F081701C90B3FEF7C2FA1F
:102B4000C01BB04200D866BBC5F3074001280AD1BC
:102B500020684069A9B20840A9B2884201D1012089
:102B60000BE0002009E020688069A9B20840A9B202
:102B7000884201D1012000E0002090B900202063AC
:102B8000202084F83D00002084F83E00206C40F0B6
:102B90002000206400BF002084F83C0000BF01201A
:102BA000C8E7FFE7C5F3074001280AD1206840695C
:102BB000A9B20840A9B2884201D101200BE000204F
:102BC00009E020688069A9B20840A9B2884201D111
:102BD000012000E0002000288BD00020AAE770B57B
:102BE00004460D46164637E020684069C0F30010E1
:102BF000A0B16FF010002168486100202063202000
:102C000084F83D00002084F83E00206C206400BF62
:102C1000002084F83C0000BF012070BDFEF752FA8E
:102C2000801BA84200D8BDB920684069C0F380105D
:102C300090B900202063202084F83D00002084F813
:102C40003E00206C40F02000206400BF002084F88B
:102C50003C0000BF0120E0E720684069C0F380101D
:102C60000028C1D00020D8E770B504460D461646AE
:102C700025E02046FFF705FD08B1012070BD681C66
:102C8000E8B1FEF71FFA801BA84200D8BDB9206842
:102C90004069C0F3C01090B900202063202084F860
:102CA0003D00002084F83E00206C40F020002064AD
:102CB00000BF002084F83C0000BF0120DEE7206850
:102CC0004069C0F3C0100028D3D00020D6E730B54B
:102CD00002460B460020002112E0545C60400024B4
:102CE0000AE000F0800525B1072585EA4005E8B235
:102CF00001E04506280E641C082CF2DBC0B2491C1A
:102D00009942EAD330BD00002DE9FF5F07468846AF
:102D1000164670000390039801F06CFA054601F026
:102D2000F9FD4FF47A714FF6FF7000EA4600012377
:102D30003A46CDE90050029111215648FEF768FB52
:102D4000814601F0F9FDB9F1000F3CD02F2152A0CE
:102D5000FDF758FA28B12F214FA0FDF753FA401C78
:102D600000E04DA082465C21FDF74CFA002811D00E
:102D70002F2149A0FDF746FA28B12F2146A0FDF7E3
:102D800041FA401C00E044A082465C21FDF73AFA7B
:102D9000401C0BE02F2140A0FDF734FA28B12F2171
:102DA0003DA0FDF72FFA401C00E03BA0044657224F
:102DB000214641A000F056FD284601F0E3F901202C
:102DC00004B0BDE8F09F00245CE0002002905CB9F4
:102DD00041A000680190285D8DF80500022101A83E
:102DE000FFF775FF029005E005EB44000121FFF7B6
:102DF0006EFF0290012000EB4400295C02988142A2
:102E00003AD02F2124A0FDF7FDF928B12F2122A0CF
:102E1000FDF7F8F9401C00E01FA083465C21FDF798
:102E2000F1F988B12F211CA0FDF7ECF928B12F2171
:102E300019A0FDF7E7F9401C00E017A083465C21CC
:102E4000FDF7E0F9401C0BE02F2113A0FDF7DAF9A4
:102E500028B12F2110A0FDF7D5F9401C00E00EA0ED
:102E6000824623466E2251461CA000F0FBFC2846F9
:102E700001F088F90120A3E715F8140008F8040010
:102E8000601CC4B2B442A0DB284601F07BF90020EC
:102E900096E70000980000202E2E5C446576656C55
:102EA0006F706D656E745C496E745C496E745F42E0
:102EB000513736392E6300005B25733A25645D2057
:102EC0004251373639205265616452656720466148
:102ED000696C65640A000000110000005B25733A0C
:102EE00025645D20202564204352433820436865D3
:102EF000636B204661696C65640A0000F0B585B0BB
:102F000004460D4614A0006804908DF811408DF819
:102F10001250032104A8FFF7DAFE06468DF80C5084
:102F20008DF80D6001F0F6FC4FF47A70022103AACF
:102F30000123CDE900210290224610210748FEF727
:102F400021FC08B1012000E00020074601F0F4FC5C
:102F5000384605B0F0BD00001000000098000020C9
:102F600070B500240CE0002506E00020074901EBC5
:102F7000C5010855681CC5B2802DF6DB601CC4B2C3
:102F8000082CF0DB00F0B8F870BD00007C010020D8
:102F9000F0B514460B46CF1701EB5777C7F3C702BE
:102FA000CF1701EB5777FF10A1EBC707FEB2012344
:102FB000B340DDB24CB1134B03EBC0039B5C2B431E
:102FC000104F07EBC007BB541AE00E4B03EBC003D6
:102FD0009B5CDB430B4F07EBC007BB54094B03EB78
:102FE000C0039B5C2B43074F07EBC007BB54054B4B
:102FF00003EBC0039B5CDB43024F07EBC007BB54F2
:10300000F0BD00007C01002010B54FF44870FDF7C2
:10301000AFFE0021AE2000F0B9F90021084600F013
:10302000B5F90021102000F0B1F90021402000F096
:10303000ADF90021812000F0A9F90021CF2000F096
:10304000A5F90021A12000F0A1F90021C82000F07D
:103050009DF90021A62000F099F90021A82000F098
:1030600095F900213F2000F091F90021D32000F0D4
:103070008DF90021084600F089F90021D52000F0E3
:1030800085F90021802000F081F90021D92000F08D
:103090007DF90021F12000F079F90021DA2000F01B
:1030A00075F90021122000F071F90021DB2000F0F9
:1030B0006DF90021402000F069F90021202000F086
:1030C00065F90021022000F061F900218D2000F057
:1030D0005DF90021142000F059F90021A42000F02E
:1030E00055F90021A62000F051F9FFF739FF002122
:1030F000AF2000F04BF910BD70B500241CE004F1C6
:10310000B001C8B2002100F041F90021084600F0EA
:103110003DF90021102000F039F9002508E00849A8
:1031200001EBC501085D012100F030F9681CC5B252
:10313000802DF4DB601CC4B2082CE0DB70BD000005
:103140007C0100202DE9FE4F0746884692461C462A
:103150000197CDF80080082C02D14FF006091FE03E
:103160002046E31704EB5373DB1021464FEAE47C5F
:1031700004EB5C7C4FEAEC0CA4EBCC0CBCF1000F34
:1031800002D04FF0010C01E04FF0000C63442246E6
:1031900004EBD27C4FEA6C0C03FB0CF303F0FF0949
:1031A000AAF12000C6B200255EE0082C07D106EB8C
:1031B00046002F4901EB400010F805B01DE00C2C33
:1031C00007D106EB46002B4901EB800010F805B053
:1031D00013E0102C05D1284800EB061010F805B0BC
:1031E0000BE0182C07D106EBC600244901EB800048
:1031F00010F805B001E0BDE8FE8F002002901CE051
:103200000BF0010028B1414638460C9AFFF7C0FE8A
:1032100009E00C9808B9012000E000200246414670
:103220003846FFF7B5FE4FEA6B0B08F1010000F0DE
:10323000FF080298401CC0B2029002980828DFDB09
:10324000781CC7B2082C0BD004EBD4714A1001993A
:10325000791A8A4204D1019F00980830C0B20090C8
:10326000DDF80080681CC5B24D459EDB00BFC2E79B
:10327000664E00088E50000802550008F25A0008F9
:103280002DE9FC4F05460F4690461C46A946BA4616
:103290002046E21704EB5272D2102146E31704EBEA
:1032A0005373DB10A4EBC3030BB1012300E0002335
:1032B0001A4462431FFA82FB00263AE0102C05D123
:1032C0001E4800EB4810805D009001E0BDE8FC8FD7
:1032D000002001901CE0009800F0010028B1394660
:1032E00028460B9AFFF754FE09E00B9808B9012015
:1032F00000E00020024639462846FFF749FE0098C4
:1033000040100090781CC7B20198401CC0B20190D8
:1033100001980828DFDB681CC5B2A5EB0900A042B4
:1033200004D14D460AF1080000F0FF0A5746701C10
:1033300086B25E45C2DB00BFC8E700004E680008E9
:103340002DE9F84106460F4614461D46DDF81C805F
:1033500013E0CDF8008022782B4639463046FFF73F
:10336000F1FE082D02D1B01DC6B205E0284605EBDE
:10337000D07106EB6101CEB2641C2078202802DBFC
:1033800020787E28E5DDBDE8F88100007CB50446A4
:103390000D460DB9002000E040208DF804008DF8A6
:1033A00005406420022301AA782100900148FDF71E
:1033B00077FF7CBD9800002010B5054805490860DE
:1033C0000846FDF7ACFC08B1FDF7A6FC10BD0000F7
:1033D000003002400000002000B585B000200190C0
:1033E00002900390049000BF2948806940F01000CB
:1033F000274988610846806900F01000009000BFEE
:1034000000BF00BF0846806940F020008861084680
:10341000806900F02000009000BF00BF00BF084698
:10342000806940F0080088610846806900F0080063
:10343000009000BF00BF00BF0846806940F0040054
:1034400088610846806900F00400009000BF00BF5A
:1034500000224FF400410F48FDF72EFE4FF480503C
:10346000019000200290039001A90B48FDF794FC05
:103470004FF40040019001200290002003900320AF
:10348000049001A90348FDF787FC05B000BD0000CA
:103490000010024000080140000C014010B50B482C
:1034A0000B4908600B484860002109488160C160F1
:1034B0004FF480410161002141618161C16101627C
:1034C000FDF706FE08B1FDF727FC10BD00580040CF
:1034D00098000020A086010010B50B480B49086039
:1034E0004FF4E1304860002108488160C16001610B
:1034F0000C21416100218161C161FEF7E2FF08B149
:10350000FDF70AFC10BD000000380140EC0000206F
:1035100000BFFEE700BFFEE708B508490968C90813
:103520004FF47A72B1FBF2F14143009100BF00BF4A
:1035300000994A1E00920029F9D108BD140000200C
:1035400010B500BFBF2080F31188BFF34F8FBFF3CA
:103550006F8F00BF01F0E4FA18B14FF080500449BA
:10356000086000BF002080F3118800BF10BD00007C
:1035700004ED00E000B58FB0282105A8FCF737FE68
:1035800014216846FCF733FE0120059000040690E4
:10359000002007900120099002200C90C1030D919A
:1035A0004FF4E0110E9105A8FEF724FC08B1FDF7D9
:1035B000B3FB0F20009002200190002002904FF4F6
:1035C000806003900020049002216846FEF7CCFA48
:1035D00008B1FDF7A1FB0FB000BD704710B5024860
:1035E000FEF7ADFE10BD00003401002010B50268EA
:1035F0001C4B984208D0B0F1804F05D01A4B98422E
:1036000002D01A4B984203D122F070024B681A4341
:10361000144B984208D0B0F1804F05D0124B98421D
:1036200002D0124B984203D122F44072CB681A4365
:1036300022F080034C6943EA040202608B68C36293
:103640000B688362074B984201D10B690363012326
:103650004361036903F001031BB1036923F0010314
:10366000036110BD002C0140000400400008004030
:1036700000BF00BF02680C3252E8002F22F49071A4
:1036800002680C3242E80013002BF3D100BF00BFE8
:1036900000BF0268143252E8002F22F001010268D4
:1036A000143242E80013002BF3D100BF016B012953
:1036B0000ED100BF00BF02680C3252E8002F22F08A
:1036C000100102680C3242E80013002BF3D100BF56
:1036D000202180F8421000210163704770B5044634
:1036E0002168096921F44051E2681143226811619F
:1036F0002269A1681143626941EA02052168C9682B
:1037000041F20C62914329432268D16021684969E2
:1037100021F44071A2691143226851612D4A216848
:10372000914202D1FEF71EFB01E0FEF70BFB00EB1E
:10373000C00101EB001162689200B1FBF2F100EBF5
:10374000C00202EB001263689B00B2FBF3F2642339
:10375000B2FBF3F202EBC20303EB0212A1EB820114
:10376000322202EB01116422B1FBF2F101F0F0010F
:1037700000EBC00202EB001263689B00B2FBF3F2A5
:103780006423B2FBF3F201EB021200EBC00101EB88
:10379000001163689B00B1FBF3F100EBC00303EB86
:1037A00000136668B600B3FBF6F36426B3FBF6F3CA
:1037B00003EBC30606EB0313A1EB8301322303EBF8
:1037C00001116423B1FBF3F101F00F0111442268F0
:1037D000916070BD003801402DE9F84304460D4664
:1037E00017469846089E31E0701C70B3FDF76AFCDE
:1037F000A0EB0800B04200D816B90320BDE8F8835A
:103800002068C06800F00400F8B1802D1ED0402D63
:103810001CD020680068C0F3C000B0B100BF002019
:10382000009020680068009020684068009000BF09
:1038300000BF2046FFF71CFF0820606400BF002087
:1038400084F8400000BF0120D8E7FFE72068006847
:103850002840A84201D1012000E00020B842C3D096
:103860000020CBE70FB4054B10B503A9044A02981A
:1038700000F0F6F810BC5DF814FB00006941000888
:103880008C00002002480068C0F30220704700004E
:103890000CED00E010B5002804DB0A07130E054A02
:1038A000135406E00A07140E034A00F00F031B1F0F
:1038B000D45410BD00E400E018ED00E002E008C8B8
:1038C000121F08C1002AFAD170477047002001E09A
:1038D00001C1121F002AFBD1704700002DE9FF5FD4
:1038E00082B00021DDE90430020DDDF840B0034371
:1038F00018D044F61050A2F2FF324243151411982A
:1039000001281FD0A5EB0B00401C5FEA000A4FF016
:1039100000064E4FDFF83891B046504615D5CAF133
:10392000000413E0119801244AA3012801D16FEA91
:103930000B010298119AC0E90031C0E9024206B0B9
:10394000BDE8F09FCBF10000DFE704460021404ACC
:10395000491842EB0450CDE9001012E0E00707D00F
:1039600032463B4640464946FCF722FE80468946A1
:1039700032463B4610461946FCF71AFE06460F46ED
:103980006410002CEAD1DDE90401DDE90023BAF17D
:10399000000F06DAFCF70CFE42464B46FCF708FE29
:1039A00005E0FCF73AFC42464B46FCF736FC044681
:1039B0000E460022284BFCF785FE03D84FF0FF305F
:1039C000014607E00022254B20463146FCF749FD21
:1039D000FCF760FE102409E0002C0ADB0A22002319
:1039E000FCF7B1FC039B30321A55641E50EA010209
:1039F000F2D1641C039AC4F111031444119A012AF0
:103A000003D0012208430DD10AE0084304D000206E
:103A10004FF0110B119072E7A3EB0B056D1E0DE03B
:103A20005B4504DD4FF0000205F1010504E003DA17
:103A30004FF00002A5F10105002AECD0029811997F
:103A4000C0E90231C0E9004579E7000000001440F8
:103A50000000F03F300000000000F0430000E03FB5
:103A60002DE9FF4F95B09A46884606460025EEE1BF
:103A7000252877D100242746F94A0121039400E044
:103A8000044316F8013F203B01FA03F01042F7D13E
:103A900030782A2811D06FF02F033078A0F130024F
:103AA000092A16D8039A44F0020402EB820203EBBF
:103AB00042021044761C0390EFE758F8042B03925F
:103AC000002A03DA504244F40054039044F0020404
:103AD000761C30782E2816D116F8010F44F0040415
:103AE0002A280DD06FF02F023078A0F13003092B77
:103AF00009D807EB870302EB4303C718761CF3E7EB
:103B000058F8047B761C30786C280FD006DC4C28E3
:103B100017D068280DD06A2814D104E0742810D07A
:103B20007A280FD10DE044F400140AE044F4801424
:103B300001E044F440147278824202D104F580140A
:103B4000761C761C307866280BD013DC582877D08A
:103B500009DC002875D04528F6D04628F4D047283F
:103B60001AD193E118E0632835D0642879D065280C
:103B700012D18BE1702873D008DC6728F1D0692856
:103B80006FD06E280DD06F2806D1ACE073282CD0F2
:103B9000752874D0782853D05246179990476D1CD9
:103BA00054E1C4F30250022809D003280DD0D8F8FC
:103BB000001004280DD00D6008F1040846E1D8F883
:103BC0000010EA17C1E90052F6E7D8F800100D809E
:103BD000F2E70D70F0E718F8041B8DF800100020D4
:103BE0008DF80100EB46012003E058F804BB4FF0CC
:103BF000FF3061074FF0000102D40DE009F101012F
:103C00008946B9420FDA8145F8DB1BF80910002913
:103C1000F4D108E009F1010189468142FADB1BF881
:103C200009100029F6D103985346A0EB0907214655
:103C30003846179A00F080FA284400EB090507E09F
:103C400044E008E10DE01BF8010B5246179990473C
:103C5000B9F10109F7D2534621463846179AF2E0E6
:103C600039E00A21C4F302524FF0000B0091022AFE
:103C700006D058F8040BC117032A09D00AE023E044
:103C800008F1070020F00702F2E80201904605E083
:103C900000B2C117042A01D140B2C117002906DAC7
:103CA0000A460021404261EB02012D2202E022057A
:103CB00004D52B228DF80420012203E0E20701D075
:103CC0002022F7E7914657E00A2100E010214FF04B
:103CD000000B00910BE010214FF0000B44F00404A6
:103CE0000827009103E008204FF0000B0090C4F378
:103CF0000252022A05D058F8040B0021032A08D0EA
:103D000008E008F1070020F00702F2E802019046FF
:103D100003E080B2042A00D1C0B24FF000092207AC
:103D20002AD53278702A07D0DDF800C08CF0100C4C
:103D30005CEA0B0C05D00EE040228DF80420012235
:103D400008E050EA010306D030238DF804308DF8E6
:103D5000052002229146009B83F0080353EA0B03DF
:103D60000AD150EA010201D1620705D530228DF84F
:103D700004204FF001097F1E3278582A04D039A25E
:103D80000C920CAA02920BE03BA2F9E75B46009A68
:103D9000FCF7D9FA0C9B9B5C029A521E029213709C
:103DA00050EA0102F2D1029804A9081A00F1200B8E
:103DB000600702D524F4803400E001275F4502DD6E
:103DC000A7EB0B0000E0002000EB0B010090039834
:103DD0004944401A0390E00306D453462146179AFB
:103DE000039800F0A9F90544002706E001A852460F
:103DF000C05D179990476D1C7F1C4F45F6DBE003B3
:103E00000CD553462146179A039800F095F90544BE
:103E100004E030205246179990476D1C0099481EC7
:103E200000900029F5DC08E00298029952460078DB
:103E3000491C0291179990476D1CBBF10001ABF131
:103E4000010BF1DC5BE100F065F90544761C30788C
:103E500000287FF40DAE19B02846BDE8F08F0000B1
:103E60000928010030313233343536373839616250
:103E70006364656600000000303132333435363714
:103E8000383941424344454600000000600700D4F1
:103E9000062708F1070020F00700F0E8022380461B
:103EA00003F0004C5FEA0C0001D097A009E0200568
:103EB00001D596A005E0E00701D095A001E0AFF2A2
:103EC0004C001390307823F0004365280CD006DCBA
:103ED000452809D046281DD047287FD13BE06628D9
:103EE00018D067287AD136E00021112F01DB11208C
:103EF00000E0781CCDE9000104A90CA8FFF7EEFC56
:103F0000DDE90D010C9A4FF0000B07F10109109249
:103F100000914EE04FF000400097CDE9011004A958
:103F20000CA8FFF7DBFCDDE90D020C9B0F994FF0AD
:103F3000000B91461093009211B9791C00EB010916
:103F4000B7EB090003D4C0F1FF3B07F10109A9EB6E
:103F50000700019042E0012F00DA01270021112F14
:103F600001DD112000E03846CDE9000104A90CA8CC
:103F7000FFF7B4FCDDE90D010C9A00914FF0000B46
:103F8000B946109221070FD4009A4A4503DA9146A8
:103F900001E0A9F10109B9F1010F05DD109AA9F1BC
:103FA0000101515C3029F4D0B84202DA10F1040F5B
:103FB00003DA0121CDE9011010E0002803DC83447D
:103FC000A9EB000102E0411C494500DD8946A0EB58
:103FD0000B00401C01904FF000400290200705D4D8
:103FE0000198484502DB4FF0FF30019000208DF82A
:103FF0004B0002980DF14B07B0F1004F25D0022085
:104000000C902B200D90029800280CDA4042029070
:104010002D200D9007E00A210298FCF77EF930313F
:10402000029007F8011D0C99481E0C900029F2DC43
:1040300002980028EFD1791E0D980870307800F0B2
:10404000200040F0450007F8020D11A8C01BC01D5C
:1040500002901398007800B1012000EB090101984B
:1040600001EBE071029801440398401A401E03904E
:10407000E00306D453462146179A039800F05CF8F3
:1040800005441398007818B15246179990476D1C53
:10409000E00323D553462146179A039800F04CF8C5
:1040A00005441BE0BBF1000F07DB0098584504DD19
:1040B0001098179910F80B0001E01799302052461C
:1040C000904701980BF1010B401E05F1010501908D
:1040D00004D12E205246179990476D1CB9F100016A
:1040E000A9F10109DEDC05E017F8010B524617992A
:1040F00090476D1C0299481E02900029F4DC53463B
:104100002146179A03989EE62D0000002B00000020
:10411000200000002DE9F041044600251E46174608
:10412000880404D405E039462020B0476D1C641E85
:10413000F9D52846BDE8F0812DE9F0410446002577
:104140001E469046C80301D5302700E0202788048A
:1041500004D505E041463846B0476D1C641EF9D5CC
:104160002846BDE8F081000013B50C464FF6FF73FA
:10417000012269460248FEF723FA00981CBD0000A0
:10418000EC00002010B5002821D0114B0022001FA8
:10419000196803E0814203D80A4649680029F9D129
:1041A00052B11368841A9C4204D10068184410600C
:1041B000104602E0506000E0186039B102680B1A46
:1041C000934203D10B681A4402604968416010BDF4
:1041D00090000020FDF7D0FBFFF7CCF9FFF7FCF8CB
:1041E000FFF75CF9FFF778F9FFF7E6F8FCF7ACFCAE
:1041F00000BFFEE7F0B50B30154D20F0070100249D
:10420000144A0FE003688B420BD38B4205D95E1A28
:1042100043184768C3E9006700E04368136002C0C1
:1042200004E0021D10680028ECD12046002802D1CD
:10423000286808B10020F0BD064A07481060074A08
:10424000121A22F00702C0E9002401202860D7E7F3
:104250009400002090000020842E00208036002052
:104260002DE9F04705460E46294807682948D0F849
:1042700000802948D0F8009028480068001D00F010
:104280000BFB50B92548006890F82C10012088409D
:1042900023490968814322480160681CE0B9DEB106
:1042A00000BF204948681D49096888601B49826829
:1042B0000968CA6019490968091D8268516017496F
:1042C0000968091D8160174A144909684A61114645
:1042D0000968491C116018E07C19104800684460A6
:1042E000BC4206D20D480168091D484600F0F8FAA4
:1042F0000BE00A480168091D404600F0F1FA0A483F
:104300000068844201D208480460BDE8F0870000DC
:104310004000002030000020340000202C0000204D
:1043200044000020680600205C00002010B5044610
:1043300000F0F0FA34480068401C33490860334804
:10434000006840B9314804600846006801280DD172
:1043500000F084F90AE02E48006838B92B4800685C
:10436000C06AE16A884201D8284804602948006888
:10437000401C2849086008460068606400BF94F843
:104380002C1001208840244909680843224908600C
:1043900000BFE16A01EB8101204A02EB810148681C
:1043A000A0608268E260211D826851608160E16ADC
:1043B00001EB8101194A02EB81026261E16A01EBC2
:1043C0008101164A52F82110491CE26A02EB82026E
:1043D000124B43F8221000BF00BF00F0ADFA0C48AA
:1043E000006878B100BF09480068C06AE16A884285
:1043F00007D24FF080500A490860BFF34F8FBFF3D8
:104400006F8F00BF10BD00003C0000202C0000207A
:10441000480000205800002044000020B40500207F
:1044200004ED00E010B516E000F074FA0C48C06826
:10443000C468201D00F030FA0A480068401E09498F
:10444000086009480068401E0749086000F074FAD7
:10445000204600F06CF8044800680028E4D110BD44
:10446000540600203C00002038000020F0B587B042
:1044700001260027002408E012A0005D03A90855CA
:1044800003A8005D00B902E0641C102CF4DB00BF3F
:10449000002510E00D4F0E4800EB850000210B4673
:1044A0008022CDE9001003A9384600F01DFB064626
:1044B00006B902E06D1C012DECDB00BF304607B0F1
:1044C000F0BD000049444C4500000000AD45000827
:1044D000600000202DE9FF5F074688461646994692
:1044E000DDE90EABB00000F045F9054675B154208A
:1044F00000F040F904462CB154212046FBF777FE2A
:10450000256304E0284600F027FA00E0002454B1B7
:1045100000204B4632464146CDE900ABCDE9024092
:10452000384600F057F8204604B0BDE8F09F10B5BB
:104530000446206B00F010FA204600F00DFA10BD82
:1045400030B54FF42053144800F007042CB1C01DBF
:1045500020F00700104C041B1B1B104C2060002493
:104560000E4D6C60C218083A22F007020C4C226013
:1045700000240B4D2D686C60094D2D682C600146A0
:10458000541A4C60064C24680C60064D4C682C6034
:10459000054D4C682C6030BD7C0600206C0000206E
:1045A000740000207C0000207800002000BFFFF78E
:1045B00039FF064800680128F9D94FF080500449B6
:1045C0000860BFF34F8FBFF36F8FF0E7B405002093
:1045D00004ED00E02DE9F05F81460E4617469A464D
:1045E000DDF828800C9CB900A522206BFBF7F8FDB4
:1045F000781E216B01EB800B2BF0070B7EB10025A1
:1046000007E0715D04F134004155705D00B902E0CE
:104610006D1C102DF5D300BF002143200155B8F1CA
:10462000050F01D34FF00408C4F82C80201D00F0C2
:1046300054F904F1180000F050F92461C8F10500A4
:10464000A061646252464946584600F013F9206062
:104650000B9808B10B980460BDE8F09F10B50024DA
:1046600007E004EB84010F4A02EB810000F028F917
:10467000641C052CF5D30C4800F022F90B4800F01F
:104680001FF90B4800F01CF90A4800F019F90A4814
:1046900000F016F904480949086004480849086010
:1046A00010BD0000B4050020180600202C060020D4
:1046B000400600205406002068060020300000203C
:1046C0003400002010B50146164800E00068036879
:1046D0008B42FBD30246436813448B4204D14368A8
:1046E0004C682344436001460A464B6813440468FF
:1046F000A34211D10C4C03682468A34208D04B6834
:104700000468646823444B6003681B680B6005E021
:10471000054B1B680B6001E003680B60884200D00A
:10472000016010BD6C000020740000200948006882
:10473000006808B9012000E0002020B14FF0FF30F0
:104740000549086005E003480068C0680068024940
:1047500008607047300000205C00002000BFBF20D0
:1047600080F31188BFF34F8FBFF36F8F00BF00BF7F
:10477000FEE700002DE9F04704464FF00009DCB1E8
:1047800014F1090F01D9012000E0002098B9083484
:1047900004F0070080B104F00700C0F10808C8F178
:1047A000FF30A04201D2012000E0002008B94444BB
:1047B00002E0002400E0002400F040F928480068EE
:1047C00008B9FFF7BDFE012000EBE470002841D0DE
:1047D000002C3FD02348006884423BD8224E30460C
:1047E000056801E02E462D686868A04202D228685C
:1047F0000028F7D11A48006885422BD0306800F1B4
:104800000809286830606868001B102807D92F192C
:104810006868001B78606C603068386037601149E8
:1048200068680968081A0F490860084600680F4957
:104830000968884203D20B4800680C490860686820
:1048400040F0004068600020286009480068401C73
:104850000749086000F034FA4846BDE8F0870000D8
:1048600074000020780000206C0000207C000020F4
:1048700080000020001F4FF080730360001F21F0B4
:1048800001030360001F034B0360143802602038EB
:10489000704700005D47000801460A69D1E9013010
:1048A0009860D1E9010358605068884201D1886856
:1048B0005060002008611068401E1060106870474A
:1048C00000F1080141604FF0FF31816000F1080103
:1048D000C1600161002101607047002101617047E2
:1048E00010B502460B685C1C0CB9106907E002F1B8
:1048F000080000E04068446824689C42FAD9446893
:104900004C604C68A160886041600A611468641C56
:10491000146010BD00BFBF2080F31188BFF34F8F1C
:10492000BFF36F8F00BF03480068401C0149086057
:10493000704700008800002006480068401E0549B6
:1049400008600846006820B9002080F3118800BF85
:1049500000BF70478800002070B506463546E6B1B6
:10496000083D2C466068C00FB8B12068A8B96068DF
:1049700020F00040606000F061F808496068096854
:104980000844064908602046FFF79CFE044800687A
:10499000401C0349086000F093F970BD78000020C6
:1049A0008400002000204FF0E02108618861024867
:1049B00048610720086170473F19010070B504463F
:1049C000002544B100F03AF800212046FFF748FCEA
:1049D00000F076F905463DB94FF080500349086074
:1049E000BFF34F8FBFF36F8F70BD000004ED00E089
:1049F00010B5FFF73BFD0446012C14D100BFBF20CA
:104A000080F31188BFF34F8FBFF36F8F00BF4FF05C
:104A1000FF3006490860012005490860002005496B
:104A2000086000F047F80448006810BD5C000020F2
:104A30004800002040000020640000200248006878
:104A4000401C014908607047680000201448006855
:104A500018B101201349086021E0002011490860C5
:104A600000BF11480068B0FA80F0C0F11F0100BF1C
:104A700001EB81020D4B03EB8200426852684260F9
:104A800000F108024368934201D1C2684260426863
:104A9000D268074B1A6000BF00BF18460068704715
:104AA000680000205000002044000020B4050020D1
:104AB0002C00002010B50A48006840F47F00084927
:104AC00008600846006840F07F400860FFF76AFF12
:104AD000002004490860FBF727FB002010BD000000
:104AE00020ED00E0880000202DE9FC5F06460F461F
:104AF00090469946DDE90CAB4B4642463946304676
:104B0000CDE900ABFFF7E6FC054625B12846FFF7E7
:104B10000DFC012401E04FF0FF342046BDE8FC9F6E
:104B20002DE9F04100275B48006800287DD15A48F4
:104B30000068451C5848056095B900BF5748D0F833
:104B4000008057480068554908605548C0F8008003
:104B500054480068401C53490860FFF7E7FD00BF58
:104B60005148006885427DD300BF4C48006800680A
:104B700008B9012000E0002020B14FF0FF304A4981
:104B800008606EE045480068C068C4686668B54261
:104B900002D24548066064E000BF6069D4E90212B1
:104BA0008A60D4E902214A60211D42688A4201D10B
:104BB000E1684160002262610168491E016000BF36
:104BC000A06AA0B100BFA06AD4E907128A60D4E944
:104BD00007214A6004F1180142688A4201D1216A22
:104BE00041600022A2620168491E016000BF00BF4F
:104BF00094F82C10012088402C49096808432B495F
:104C0000086000BFE16A01EB8101294A02EB8101E2
:104C10004868A0608268E260211D826851608160FE
:104C2000E16A01EB8101224A00E02BE002EB810204
:104C30006261E16A01EB81011D4A52F82110491CB1
:104C4000E26A02EB82021A4B43F8221000BF00BF57
:104C50001849E06A0968C96A884286D9012784E749
:104C600000E000BF13480068C06A00EB80001049F4
:104C700051F82000012800D901270F48006800B131
:104C8000012704E00D480068401C0C4908603846C4
:104C9000BDE8F081680000204000002030000020C6
:104CA00034000020540000205C000020440000205C
:104CB000B40500202C000020500000204C000020F3
:104CC0002DE9F04100240027FFF724FE002552487B
:104CD0000068401E504908600846006800286ED1F0
:104CE0004E48006800286AD064E04D48C068C46837
:104CF00000BFA06AD4E907128A60D4E907214A609C
:104D000004F1180142688A4201D1216A41600022FF
:104D1000A2620168491E016000BF00BF6069D4E95A
:104D200002128A60D4E902214A60211D42688A4247
:104D300001D1E1684160002262610168491E0160A1
:104D400000BF00BF94F82C10012088403549096845
:104D500008433449086000BFE16A01EB8101324A2F
:104D600002EB81014868A0608268E260211D8268D0
:104D700051608160E16A01EB81012B4A02EB810203
:104D80006261E16A01EB8101274A52F82110491C56
:104D9000E26A02EB8202244B43F8221000BF00BFFC
:104DA0002249E06A0968C96A884203D9012020497A
:104DB00041F825001A48006810B9012001E026E0FA
:104DC0000020002891D00CB1FFF7B0FC194806680C
:104DD0006EB100BFFFF7A4FE18B10120144941F8DD
:104DE0002500761E002EF5D10020124908601048DB
:104DF00050F8250058B1012700BF0C48006838075B
:104E00000D490860BFF34F8FBFF36F8F00BFFFF7EF
:104E100093FD3846BDE8F081680000203C0000208A
:104E20004006002044000020B40500202C00002093
:104E3000500000204C00002004ED00E002030405B7
:104E4000060708090A0B0C0D0E0F101001020000D6
:104E5000000000000000010203040607080900002A
:104E60000000010203040000000000000000002F09
:104E7000000000000700070000147F147F140024C6
:104E80002A7F2A12006264081323003649552250F3
:104E900000000503000000001C2241000000412228
:104EA0001C000014083E08140008083E0808000012
:104EB00000A060000008080808080000606000000A
:104EC000002010080402003E5149453E0000427F88
:104ED0004000004261514946002141454B310018D4
:104EE00014127F10002745454539003C4A49493096
:104EF0000001710905030036494949360006494950
:104F0000291E00003636000000005636000000085A
:104F10001422410000141414141400004122140837
:104F200000020151090600324959513E007C12111C
:104F3000127C007F49494936003E41414122007FB1
:104F40004141221C007F49494941007F090909016B
:104F5000003E4149497A007F0808087F0000417FF0
:104F60004100002040413F01007F08142241007FA2
:104F700040404040007F020C027F007F0408107F09
:104F8000003E4141413E007F09090906003E415172
:104F9000215E007F0919294600464949493100012F
:104FA000017F0101003F4040403F001F2040201F83
:104FB000003F4038403F0063140814630007087046
:104FC000080700615149454300007F4141000055F9
:104FD0002A552A55000041417F00000402010204C5
:104FE00000404040404000000102040000205454B2
:104FF0005478007F48444438003844444420003802
:105000004444487F00385454541800087E09010273
:105010000018A4A4A47C007F080404780000447D48
:105020004000004080847D00007F10284400000084
:10503000417F4000007C04180478007C0804047858
:1050400000384444443800FC242424180018242444
:1050500018FC007C08040408004854545420000440
:105060003F444020003C4040207C001C2040201C4D
:10507000003C4030403C004428102844001CA0A0C4
:10508000A07C004464544C44141414141414000000
:10509000000000000000000000000000FC00000014
:1050A000000002000000000C020C020000000000E2
:1050B000000090D0BCD0BC90000300030000182476
:1050C000FE448C000302070201001824D8B04C8073
:1050D000000300010201C038E438E00001020201CF
:1050E00002020806000000000000000000000000AE
:1050F00000F80402000000010204000204F80000AD
:105100000004020100009060F860900000000100BF
:1051100000002020FC202000000001000000000012
:1051200000000000080600000000202020202000D1
:10513000000000000000000000000000000200006D
:1051400000000080601C0200040300000000F8045E
:105150000404F8000102020201000008FC00000043
:105160000002030200001884442418000302020213
:10517000020008042424D80001020202010040B009
:1051800088FC80000000000302003C242424C400AA
:10519000010202020100F824242CC00001020202D4
:1051A00001000C04E41C0400000003000000D824EB
:1051B0002424D80001020202010038444444F800CB
:1051C00000030202010000001000000000000200C5
:1051D0000000000020000000000006000000002089
:1051E000508804020000000001029090909090000E
:1051F00000000000000000020488502000020100AE
:1052000000001804C4241800000002000000F80484
:10521000E494F80001020202020000E09CF0800029
:1052200002030000030204FC2424D800020302024B
:105230000100F80404040C0001020202010004FC55
:105240000404F80002030202010004FC24740C00B0
:1052500002030202030004FC24740C000203020097
:105260000000F0080444CC4000010202010004FCEC
:105270002020FC040203000003020404FC040400D8
:10528000020203020200000404FC040406040403F6
:10529000000004FC24D00C0402030200030204FCFE
:1052A00004000000020302020203FC3CC03CFC00BC
:1052B00003000300030004FC30C4FC0402030200EA
:1052C0000300F8040404F80001020202010004FCD7
:1052D00024241800020302000000F8848404F8006B
:1052E00001020207050004FC246498000203020086
:1052F0000302182424448C000302020201000C045F
:10530000FC040C0000020302000004FC0000FC048A
:10531000000102020100047C80E01C040000030084
:1053200000001CE03CE01C00000300030000049CA3
:10533000609C0400020300030200041CE01C040043
:105340000002030200000C84641C04000203020239
:1053500003000000FE020200000007040400000E2B
:1053600030C00000000000010200000202FE000048
:105370000004040700000004020400000000000014
:1053800000000000000000000808080808080000ED
:10539000020000000000000000000040A0A0C000CB
:1053A00000010202030204FC2020C00000030202EC
:1053B000010000C02020600000010202020000C0C5
:1053C0002024FC0000010202030200C0A0A0C000D3
:1053D0000001020202000020F8242404000203025B
:1053E00002000040A0A0602000070A0A0A0404FC92
:1053F0002020C0000203020003020020E40000009D
:10540000000203020000000020E400000808080772
:10541000000004FC80E020200203020003020404D8
:10542000FC000000020203020200E020E020C000B5
:1054300003000300030020E02020C000020302005C
:10544000030200C02020C00000010202010020E091
:105450002020C000080F0A02010000C02020E00048
:105460000001020A0F0820E0402020000203020091
:1054700000000060A0A02000000202020300002043
:10548000F820000000000102020020E00020E000FF
:1054900000010202030220E02080602000000301DE
:1054A00000006080E08060000003000300002060D6
:1054B0008060200002030003020020E020806020C2
:1054C0000808070100000020A0602000000203027D
:1054D0000200000020DE02000000000704000000BF
:1054E00000FF00000000000F00000002DE200000AE
:1054F0000004070000000201020404020000000092
:10550000000000000000000000000000000000009B
:105510000000000000F80000000000000033300030
:10552000000000100C06100C060000000000000037
:10553000000040C07840C0784000043F04043F04AD
:105540000400007088FC08300000001820FF211EB5
:105550000000F008F000E018000000211C031E21EC
:105560001E0000F00888700000001E212324192767
:10557000211010160E0000000000000000000000C6
:105580000000000000E018040200000000071820DE
:10559000400000020418E00000000040201807004E
:1055A0000000404080F0804040000202010F0102F4
:1055B0000200000000F0000000000101011F0101D5
:1055C0000100000000000000000080B0700000003A
:1055D00000000000000000000000000101010101C6
:1055E0000101000000000000000000303000000059
:1055F0000000000000008060180400601806010030
:10560000000000E010080810E000000F102020103B
:105610000F00001010F8000000000020203F2020A4
:10562000000000700808088870000030282422213B
:1056300030000030088888483000001820202011F1
:105640000E000000C02010F8000000070424243FD2
:10565000240000F80888880808000019212020117B
:105660000E0000E0108888180000000F11202011A3
:105670000E0000380808C83808000000003F00008D
:1056800000000070880808887000001C2221212278
:105690001C0000E010080810E00000003122221178
:1056A0000F00000000C0C00000000000003030000B
:1056B000000000000080000000000000806000008A
:1056C00000000000804020100800000102040810C3
:1056D00020004040404040404000040404040404D2
:1056E0000400000810204080000000201008040280
:1056F0000100007048080808F00000000030360182
:105700000000C030C828E810E00007182724231440
:105710000B000000C038E0000000203C23020227FC
:10572000382008F8888888700000203F2020201149
:105730000E00C03008080808380007182020201084
:10574000080008F808080810E000203F202020107A
:105750000F0008F88888E8081000203F2020232048
:10576000180008F88888E8081000203F200003008F
:105770000000C03008080838000007182020221E4A
:10578000020008F808000008F808203F2101012164
:105790003F20000808F8080800000020203F2020D3
:1057A000000000000808F8080800C08080807F0022
:1057B000000008F888C028180800203F200126387B
:1057C000200008F8080000000000203F20202020D2
:1057D000300008F8F800F8F80800203F003F003FCC
:1057E000200008F830C00008F808203F2000071803
:1057F0003F00E01008080810E0000F1020202010E3
:105800000F0008F808080808F000203F21010101F6
:105810000000E01008080810E0000F182424385099
:105820004F0008F8888888887000203F2000030C0B
:105830003020007088080808380000382021212214
:105840001C00180808F8080818000000203F200075
:10585000000008F808000008F808001F2020202099
:105860001F000878880000C83808000007380E01BB
:105870000000F80800F80008F800033C0700073CA7
:105880000300081868808068180820302C03032C57
:1058900030200838C800C83808000000203F200029
:1058A000000010080808C8380800203826212020E9
:1058B0001800000000FE020202000000007F4040CD
:1058C0004000000C30C0000000000000000106385D
:1058D000C00000020202FE000000004040407F00C5
:1058E00000000000040202020400000000000000AA
:1058F00000000000000000000000808080808080A8
:10590000808000020204000000000000000000008F
:1059100000000000808080800000001924222222E4
:105920003F2008F8008080000000003F1120201177
:105930000E000000008080800000000E112020205A
:105940001100000000808088F800000E1120201057
:105950003F200000808080800000001F2222222241
:105960001300008080F0888888180020203F2020C5
:1059700000000000808080808000006B94949493ED
:10598000600008F8008080800000203F2100002097
:105990003F2000809898000000000020203F202039
:1059A0000000000000809898000000C08080807F88
:1059B000000008F8000080808000203F24022D3085
:1059C0002000000808F8000000000020203F2020F0
:1059D00000008080808080808000203F20003F2069
:1059E000003F8080008080800000203F2100002058
:1059F0003F200000808080800000001F20202020A9
:105A00001F00808000808000000080FFA120201106
:105A10000E000000008080808000000E112020A079
:105A2000FF80808080008080800020203F21200037
:105A30000100000080808080800000332424242422
:105A40001900008080E0808000000000001F2020FE
:105A500000008080000000808000001F20202010B7
:105A60003F20808080000080808000010E3008068A
:105A7000010080800080008080800F300C030C309B
:105A80000F0000808000808080000020312E0E31C9
:105A90002000808080000080808080818E701806C9
:105AA000010000808080808080000021302C222135
:105AB000300000000000807C020200000000003F77
:105AC000404000000000FF00000000000000FF0058
:105AD00000000002027C800000000040403F000007
