:020000040800F2
:10000000283600209D0100082F1B0008311400082D
:100010002D1B0008F1040008BB1D000800000000B3
:1000200000000000000000000000000005010008C2
:10003000F30400080000000049010008311B00081B
:10004000B7010008B7010008B7010008B7010008B0
:10005000B7010008B7010008B7010008B7010008A0
:10006000B7010008B7010008B7010008B701000890
:10007000B7010008B7010008B7010008B701000880
:10008000B7010008B7010008B7010008B701000870
:10009000B7010008B7010008B7010008B701000860
:1000A000B7010008B7010008B7010008B701000850
:1000B000BD1B0008B7010008B7010008B701000820
:1000C000B7010008B7010008B7010008B701000830
:1000D000B7010008B7010008B7010008B701000820
:1000E000B7010008B7010008B7010008DFF810D019
:1000F00000F09AF800480047ED1F0008AFF30080B9
:1001000028360020224B19680868B0E8F00F80F309
:100110000988BFF36F8F4FF0000080F311884EF015
:100120000D0E70470000000006480068006880F36C
:10013000088862B661B6BFF34F8FBFF36F8F00DFE1
:1001400000BF00BF08ED00E0EFF30980BFF36F8F41
:100150000F4B1A6820E9F00F106008B54FF0BF0090
:1001600080F31188BFF34F8FBFF36F8F02F05CFAFB
:100170004FF0000080F31188BDE808401968086856
:10018000B0E8F00F80F30988BFF36F8F704700BFAE
:1001900014000020EFF305807047000006488047F8
:1001A00006480047FEE7FEE7FEE7FEE7FEE7FEE75C
:1001B000FEE7FEE7FEE7FEE7BB1B0008ED000008D8
:1001C000D2B201E000F8012B491EFBD27047002299
:1001D000F6E710B513460A4604461946FFF7F0FF46
:1001E000204610BD0022CBB20178994200D10246D0
:1001F000401C0029F8D11046704730B50B46014627
:1002000000202022012409E021FA02F59D4205D3B5
:1002100003FA02F5491B04FA02F52844151EA2F15F
:100220000102F1DC30BD0000064C074D06E0E0683D
:1002300040F0010394E8070098471034AC42F6D32D
:10024000FFF758FF3445000854450008F8B500246E
:1002500001F07EFA0025012610232A4600212046BF
:10026000009601F087FB6D1C1034EDB2E4B2032D53
:10027000F2D310230BA200212046009601F0C4FB0C
:100280001834E5B2032410232246002128460096A4
:1002900001F070FB641C1035E4B2EDB2052CF2D312
:1002A000F8BD0000424D530001F0CCBA2F211DA033
:1002B000FFF798FF28B12F211AA0FFF793FF401CEA
:1002C00000E018A05C21FFF78DFF00284FF02F0100
:1002D00014A00BD0FFF786FF28B12F2111A0FFF744
:1002E00081FF401C00E00FA05C2104E0FFF77AFFD3
:1002F00028B12F210BA0FFF775FF401C00E009A0DB
:1003000001462B220FA001F059FDFFF79FFF00BF10
:1003100002F0F0F8FFF7C8FF02F0FAF8642002F0EC
:100320002FF9F5E72E2E5C446576656C6F706D6570
:100330006E745C4170705C4170705F4D61696E2ECF
:10034000630000005B25733A25645D204170705F97
:100350004D61696E5F446973706C6179205461739B
:100360006B2053746172740A000000001CB502F027
:10037000C1F838490520CDE9000100234FF400728F
:1003800035A13A4802F08EF901284FF02F0138A02C
:1003900009D0FFF727FF002831D02F2134A0FFF725
:1003A00021FF401C2CE0FFF71DFF28B12F2130A0BA
:1003B000FFF718FF401C00E02DA05C21FFF712FFA3
:1003C00000284FF02F012AA00BD0FFF70BFF28B118
:1003D0002F2127A0FFF706FF401C00E024A05C218E
:1003E00004E0FFF7FFFE28B12F2121A0FFF7FAFE5E
:1003F000401C00E01EA00146182225A021E01CA000
:100400005C21FFF7EFFE00284FF02F0118A00BD062
:10041000FFF7E8FE28B12F2115A0FFF7E3FE401CEF
:1004200000E013A05C2104E0FFF7DCFE28B12F21DF
:100430000FA0FFF7D7FE401C00E00DA001461D22D3
:100440001FA001F0BBFC02F063F8BDE81C4002F005
:10045000AFB80000100000204170705F4D61696E00
:100460005F446973706C617900000000AD020008A0
:100470002E2E5C446576656C6F706D656E745C41A4
:1004800070705C4170705F4D61696E2E630000009A
:100490005B25733A25645D204170705F4D61696E24
:1004A0005F446973706C6179205461736B2043728F
:1004B0006561746520537563636573730A0000009A
:1004C0005B25733A25645D204170705F4D61696EF4
:1004D0005F446973706C6179205461736B2043725F
:1004E00065617465204661696C65640A00000000FE
:1004F000FEE7704772B6FEE770B5044600F0FEF8FE
:100500000546601C02D004480078044400F0F6F868
:10051000401BA042FAD370BD000000202DE9F84F27
:10052000DFF8B8910024A9F1040B23460F2709F145
:10053000040AABF1040EC9E00125A5402A40AA42F5
:100540007DD1674ED1F804C0ACEB0608B44532D07B
:1005500014DCBCF1030F3AD009DCBCF1000F2AD047
:10056000BCF1010F1CD0BCF1020F31D11DE0BCF178
:10057000110F17D0BCF1120F2AD119E0B8F5881F5E
:1005800019D006DCB8F5803F15D0B8F5801F1FD113
:1005900011E0B8F5001F0ED0B8F5041F18D10AE01D
:1005A000CB6815E0CB681B1D12E0CB6808330FE069
:1005B000CB680C330CE08B682BB1012B4FF0080398
:1005C00003D0456104E0042302E0056100E000235C
:1005D000FF2A01D8064601E000F104064FEA84052F
:1005E00001D9A5F12005D6F8008007FA05FC28EA14
:1005F0000C0803FA05F548EA0508C6F800804D68BE
:10060000ED0062D5374DAE6946F00106AE61AD69C9
:1006100024F0030605F001050095334D06EB050CAB
:10062000DCF80850A607360F07FA06F825EA080591
:10063000DFF8B880404503D14FF0000817E044E0F0
:10064000DFF8AC80404502D14FF001080FE0DFF841
:10065000A480404502D14FF0020808E0DFF89880FE
:10066000404502D14FF0030801E04FF0040808FABA
:1006700006F848EA0508CCF808804D68D9F800600B
:10068000ED024D4601D5164300E096432E604D68BD
:10069000DAF80060AD02554601D5164300E09643F6
:1006A0002E604D68DBF80060AD035D4601D5164352
:1006B00000E096432E604D68DEF80060ED0375465D
:1006C00001D5164300E096432E60641C0D682A464F
:1006D000E5407FF431AFBDE8F88F00000804014029
:1006E000000011100010024000000140000801400D
:1006F000000C0140001001400014014001488068D6
:10070000704700000000002070B5040025D094F868
:100710003D00002520B984F83C50204600F04EF9F9
:10072000242084F83D002068016821F00101016067
:100730002068016841F4004101602068016821F4EB
:100740000041016000F0E4FA4D4A6168914201D82D
:100750004C4900E04C49884201D2012070BD4B4910
:100760002368B0FBF1F15E6826F03F060E435E6041
:100770006368934206D94FF4967359434FF47A73E2
:10078000B1FBF3F12368491C1E6A26F03F06314392
:1007900019626168914210D84900401EB0FBF1F225
:1007A000521CC2F30B02042A01D2042022E0B0FB47
:1007B000F1F0401CC0F30B001CE0A268F2B301EBA7
:1007C000C10303EB0116431EB3FBF6F35B1C43F4BA
:1007D00080431B0549D092B301EBC10202EB01112A
:1007E000401EB0FBF1F0401CC0F30B0040F4804011
:1007F00040F400402168CA694CF6FF739A431043E5
:10080000C861D4E9071001432068026822F0C002E1
:1008100011430160D4E9030101432068826848F272
:10082000FF339A4311438160D4E9050108432168ED
:10083000CA6822F0FF021043C86001E00EE016E033
:100840002068016841F0010101602564202084F8DE
:100850003D00256384F83E50002070BD01EB410649
:10086000431EB3FBF6F35B1CB3E70120C2E701EBC9
:100870004101401EB0FBF1F0401CC0F30B00B7E794
:10088000A086010080841E0000093D0040420F0048
:100890002DE9F84F1F4690468A460446DDF8289019
:1008A000FFF72CFF054694F83D0020287FD119233F
:1008B000012240492046009500F04CFE002876D1E8
:1008C00094F83C00012872D0012084F83C00206894
:1008D0000168C90703D1016841F001010160206886
:1008E000016821F400610160212084F83D0010209E
:1008F00084F83E0000262664C4F824806785608D55
:1009000020852D48E0622B464A465146204600F09D
:10091000A7FD90B9206841698069009036E02A46B9
:100920004946204600F0BCFE50B1206C042804D19A
:100930002068016841F4007101600120BDE8F88F72
:10094000606A216800780861606A401C6062618D9D
:10095000491E6185218D491E89B22185226853690E
:10096000DB435B070BD451B100781061606A401C17
:100970006062608D401E6085208D401E20852A4665
:100980004946204600F0BAFD0028CED1208D00282F
:10099000C5D154F83D0B016841F40071016020207D
:1009A00004F81E09E67766770020C7E7FFE7022014
:1009B000C4E70000020010000000FFFF10B586B081
:1009C0000021009101910291039100681049884231
:1009D0001BD1104CA06940F00800A061A0696946D5
:1009E00000F0080004904FF4406000901220019045
:1009F000032003900848FFF791FDE06940F4800070
:100A0000E061E06900F48000049006B010BD0000D1
:100A10000058004000100240000C0140024881686C
:100A2000027811448160704700000020074810B52B
:100A3000016841F010010160032000F0A1F80020DE
:100A400000F006F800F050F8002010BD0020024031
:100A500030B50546204887B0C16941F00101C16148
:100A6000C06906A900F00100009001A800F030F96B
:100A70000498B8B100F04CF9400018494FF080429A
:100A8000B0FBF1F11648491E0260416040F2E732C6
:100A90000021C0E903218160816100F011FB0400A5
:100AA00003D015E000F034F9E7E70D4800F036FB1D
:100AB00004000DD11C2000F035F8102D07D20022C3
:100AC00029461C2000F03CF80648056000E001249F
:100AD00007B0204630BD00000010024040420F0029
:100AE00014010020040000200C4808B5816941F081
:100AF00001018161816901F001010091C16941F049
:100B00008051C161C06900F0805000900448416884
:100B100021F0E06141F00071416008BD0010024029
:100B200000000140002809DB00F01F020121914074
:100B30004009800000F1E020C0F80011704700007B
:100B4000F0B40E4B1B680C46C3F30223C3F1070538
:100B5000042D00D90425191D072901D2002300E026
:100B6000DB1E012606FA05F1491E214099409E40F0
:100B7000761E16403143F0BC01F030B90CED00E0B8
:100B8000064900F0070208684FF6FF03184040EAE4
:100B90000220034A10430860704700000CED00E09B
:100BA0000000FA052DE9F0470F46050061D0434EDD
:100BB000306800F00700B84209D2306820F0070022
:100BC00038433060306800F00700B84251D12868DF
:100BD0003B4C810712D5400703D5606840F4E060C4
:100BE00060602878000703D5606840F4605060605A
:100BF0006068A96820F0F000084360602878C007AA
:100C000028D06868012810D02168022810D08907F0
:100C100000292EDA616821F0030101436160FFF7CA
:100C20006DFD804641F288390DE021688903EFE7C8
:100C30008901EDE7FFF762FDA0EB0801494502D904
:100C40000320BDE8F0876068696800F00C00B0EB35
:100C5000810FEFD1306800F00700B8420BD930683F
:100C600020F0070038433060306800F00700B842D9
:100C700001D00120E5E72878400705D56068E968DC
:100C800020F4E060084360602878000706D56068BB
:100C9000296920F4605040EAC100606000F058F813
:100CA0006168084AC1F30311515CC84006490860F5
:100CB00006480068FFF7CCFE0020C2E70020024093
:100CC000001002406E2900080C00002004000020E3
:100CD0000F2202600C4A536803F003034360536819
:100CE00003F0F0038360536803F4E063C360526869
:100CF0004FF4E06303EAD20202610448006800F0A6
:100D00000700086070470000001002400020024009
:100D10000448054900684968044AC1F30221515C4E
:100D2000C84070470C000020001002407E290008D7
:100D30000448054900684968044AC1F3C221515C6E
:100D4000C84070470C000020001002407E290008B7
:100D50000E4A51680E4801F00C03042B11D0082BE9
:100D60000FD10C48C1F38343C903C05C0AD5516855
:100D7000084AC1F34041921E515C054A5043B0FB02
:100D8000F1F07047044948437047000000100240EA
:100D900000127A005E29000800093D002DE9F84F95
:100DA000040070D02078C04DC00749D06868C0F3F7
:100DB0008100012807D06868C0F38100022809D1AA
:100DC0006868C00306D52868800339D560680028A4
:100DD000E7D035E06068B0F5803F0BD010B1B0F5DA
:100DE000A02F11D0286820F480302860286820F4D3
:100DF000802002E0286840F480302860606890B16C
:100E0000FFF77CFC06460AE0286840F48020286052
:100E1000F0E700BFFFF772FC801B642873D82868D6
:100E20008003F7D50CE0FFF769FC064605E000BF3C
:100E3000FFF764FC801B6428F0D828688003F7D48F
:100E400020789A4E80074FF001094FF0000839D5FD
:100E5000686810F00C0F07D06868C0F381000228A2
:100E600009D16868C00306D42868800714D52069B2
:100E7000012808D110E02069B0B1C6F80090FFF752
:100E80003DFC074605E00AE1FFF738FCC01B0228DD
:100E9000C4D828688007F7D52868616920F0F80071
:100EA00040EAC10028600DE0C6F80080FFF726FC8C
:100EB000074604E0FFF722FCC01B022823D828685D
:100EC0008007F7D4207800072CD57948A169D9B1DB
:100ED000C0F80090FFF712FC074604E0FFF70EFC95
:100EE000C01B02280FD8686A8007F7D571484FF4F5
:100EF000FA510068B0FBF1F0009000BF0098411E6D
:100F00000091FAD20EE080E0C0F80080FFF7F6FB17
:100F1000074604E0FFF7F2FBC01B022875D8686A99
:100F20008007F7D42078400760D5E8690027C00023
:100F300008D4E86940F08050E861E869012700F0D2
:100F4000805000905C480168C90513D4016883464D
:100F500041F480710160FFF7D1FB824606E000BFDB
:100F6000FFF7CCFBA0EB0A0064284ED8DBF80000AA
:100F7000C005F5D5E06801280AD008B1052813D0CE
:100F8000286A20F001002862286A20F0040002E0AC
:100F9000286A40F001002862E06841F2883B98B17D
:100FA000FFF7ACFB82460BE0286A40F004002862A1
:100FB000EEE700BFFFF7A2FBA0EB0A0159455AD8A4
:100FC000286A8007F6D50CE0FFF798FB824605E01B
:100FD000FFF794FBA0EB0A0159454CD8286A80071B
:100FE000F6D41FB1E86920F08050E861E06988B369
:100FF0006968C1F38101022944D00228C6F86080E3
:1010000004D0FFF77BFB044638E034E0FFF776FBC3
:10101000074604E0FFF772FBC01B02282BD82868A4
:101020008001F7D4206AB0F5803F05D16868A168D7
:1010300020F4003008436860D4E908010843696877
:1010400021F4741108436860C6F86090FFF756FBFE
:10105000044606E025E000BFFFF750FB001B022816
:1010600009D828688001F7D51BE000BFFFF746FBD1
:10107000001B022802D90320BDE8F88F28688001F0
:10108000F4D40EE00128F7D06868226A00F48031B9
:10109000914204D1616A00F47010884201D00120AD
:1010A000EAE70020E8E700000010024000004242AA
:1010B000800442420C0000200070004070477047DE
:1010C00010B5040003D094F83D0010B107E00120F2
:1010D00010BD002084F83C00204600F01EF80220DD
:1010E00084F83D00211D206800F06EFD012084F889
:1010F000460084F83E0084F83F0084F8400084F8FD
:10110000410084F8420084F8430084F8440084F8E5
:10111000450084F83D00002010BD704790F83D1058
:10112000012901D001207047022180F83D1001689B
:10113000CA6842F00102CA6000680B49884208D0C0
:10114000B0F1804F05D00949884202D00849884251
:1011500004D1816801F00701062903D0016841F03C
:101160000101016000207047002C01400004004094
:101170000008004070472DE9F04104460068C66849
:1011800005694FF00007A90713D5B10711D5F91E5E
:10119000016101202077206880698007204602D005
:1011A000FFF7E8FF04E000F07EF8204600F07CF84E
:1011B0002777680716D5700714D521686FF00400EB
:1011C0000861022020772068806910F4407F204663
:1011D00002D0FFF7CFFF04E000F065F8204600F0F2
:1011E00063F82777280715D5300713D521686FF0E6
:1011F00008000861042020772068C0698007204625
:1012000002D0FFF7B7FF04E000F04DF8204600F0F1
:101210004BF82777E80616D5F00614D521686FF04D
:1012200010000861082020772068C06910F4407F12
:10123000204602D0FFF79EFF04E000F034F820467D
:1012400000F032F82777E80708D0F00706D02168C9
:101250006FF001000861204600F027F8280608D545
:10126000300606D521686FF0800008612046FFF740
:1012700025FF680608D5700606D521686FF0400086
:101280000861204600F018F8A8060AD5B00608D56F
:1012900021686FF0200008612046BDE8F041FFF7AB
:1012A0000EBFBDE8F081704770470068B0F1804F15
:1012B00001D1FFF7B3BB7047704770B5040004D08D
:1012C00094F84100002510B106E0012070BD84F8BB
:1012D0004050204600F024F8242084F84100206883
:1012E000C16821F40051C160204600F0D1FC2068A3
:1012F000016921F4904101612068416921F02A01CE
:1013000041612068C16841F40051C16065642020DA
:1013100084F8410084F842006563002070BD00003D
:1013200030B585B0002400940194029403940068C1
:101330001449884224D11448816941F48041816173
:10134000816901F480410491816941F00401816166
:1013500080690E4D00F0040004904FF4007000907E
:10136000022001900320039069462846FFF7D6F833
:101370002815CDE90004694628460294FFF7CEF807
:1013800005B030BD003801400010024000080140A7
:101390002DE9F843044690F84100984616460D465C
:1013A000202802D00220BDE8F88385B17EB100205C
:1013B0006064212084F84100FFF7A0F9A6848146EB
:1013C000E684A0682027B0F5805F02D003E001200A
:1013D000E9E7206910B12E4600250EE000260CE05A
:1013E0008021204600F0B0FCA8B9C6B116F8010B68
:1013F00021684860E08C401EE084E08C4B464FF052
:101400000002CDF800800028EAD14FF040012046CC
:1014100000F09AFC40B184F841700320C3E735F82E
:10142000020BC0F30800E3E784F841700020BAE73C
:10143000FEE701684A69D24352050FD46FF4806217
:101440004A61002140F8301F2022427381730269F3
:1014500042F00402026101730120704700207047CE
:10146000F8B50446C06A1E460D461746082807D040
:10147000012805D010F5803F02D0206B122804D13E
:101480002068016841F480710160134600224FF02A
:1014900001112046009600F05DF840B12068006818
:1014A000C00502D54FF4007020640320F8BD206908
:1014B000B0F5804F0ED00620216800EAD51040F02C
:1014C000F000086133463A460B49204600F08AF89E
:1014D00078B902E005F0FE0000E0E8B2216808619A
:1014E000054933463A46891F204600F07BF800281C
:1014F000DCD00120F8BD00000800010070B51646E0
:101500000D4604461EE02046FFF793FF08B1012078
:1015100070BD681C16D0FFF7F1F8801BA84200D8F8
:1015200085B920684069C04340070BD5002044F8C6
:10153000300F20216173A073216941F020012161E6
:101540002073E4E720684069C0434007DBD40020F3
:1015500070BD00002DE9F047984617460D46044639
:10156000C1F30746DDF820902AE000BFB8F1FF3F45
:1015700026D0FFF7C3F8A0EB0901414502D8B8F126
:10158000000F1DD12068012E16D0806925EA0000C9
:101590000004000C12D00020B84211D1002044F801
:1015A000300F20216173A073216941F02001216176
:1015B00020730120BDE8F0874069E7E70120EBE7F1
:1015C0002068012E0AD0806925EA00000004000C82
:1015D00006D00020B842C9D00020EBE74069F3E70D
:1015E0000120F7E72DE9F047984616460D460446D8
:1015F0004FF000094FF0200AC1F3074723E02068AD
:101600004069C043400515D42068016841F4007169
:10161000016021686FF480604861C4F8309084F8FC
:101620003DA084F83E90216C41F00401216484F8CF
:101630003C9021E0701C06D0FFF760F8A0EB08009A
:10164000B04203D816B1012F1FD021E02068012F2E
:1016500015D0806925EA00000004000C18D000BFF6
:1016600044F8309F84F80DA084F80E90216941F071
:101670002001216184F80C900120BDE8F0874069C9
:1016800025EA00000004000CEAD12068406901E06E
:101690002068806925EA00000004000CAFD1ECE767
:1016A00070B516460D4604461EE02046FFF7C1FE03
:1016B00008B1012070BD681C16D0FFF71FF8801B11
:1016C000A84200D885B920684069C04300060BD500
:1016D000002044F8300F20216173A073216941F08C
:1016E000200121612073E4E720684069C0430006BF
:1016F000DBD4002070BD000030B40021084B0A4646
:101700005FF0000003EBC004401CC0B262548028AC
:10171000F8D3491CC9B20829F2D330BC00F092B802
:101720005C01002030B5CC0801F0070301259D4085
:10173000EBB2064D05EBC005C808285C0AB118439A
:1017400002E063EA0000C043285530BD5C01002080
:1017500010B54FF44870FEF7CFFE0021AE2000F028
:1017600071F90021084600F06DF90021102000F009
:1017700069F90021402000F065F90021812000F086
:1017800061F90021CF2000F05DF90021A12000F0D7
:1017900059F90021C82000F055F90021A62000F0D9
:1017A00051F90021A82000F04DF900213F2000F060
:1017B00049F90021D32000F045F90021084600F046
:1017C00041F90021D52000F03DF90021802000F0F2
:1017D00039F90021D92000F035F90021F12000F07D
:1017E00031F90021DA2000F02DF90021122000F05B
:1017F00029F90021DB2000F025F90021402000F02C
:1018000021F90021202000F01DF90021022000F024
:1018100019F900218D2000F015F90021142000F0A5
:1018200011F90021A42000F00DF90021A62000F0FC
:1018300009F9FFF761FF0021BDE81040AF2000F07B
:1018400001B9000070B5114E002400BF04F1B000D2
:10185000C0B2002100F0F6F80021084600F0F2F8CE
:101860000021102000F0EEF85FF0000506EBC50047
:101870000121005D00F0E6F86D1CEDB2802DF5D37E
:10188000641CE4B2082CE1D370BD00005C010020B0
:101890002DE9FC4F1C460E4682468B460190082BD4
:1018A0000DD0600700D0012000EBD4006108484350
:1018B000C0B28146203AD0B2009000204BE0062012
:1018C000F7E7082C13D00C2C18D0102C1BD0182C98
:1018D00044D10098234900EBC00000BF01EB800118
:1018E000002711F80850E80712D00B9A13E000986F
:1018F0001D4900EB400001EB4001F1E700981B4956
:1019000000EB4000EAE71A49009801EB0011E7E715
:101910000B9828B3002231465046FFF703FF761C90
:101920007F1C6D08FFB2F6B2082FDCD30AF101006C
:1019300000F0FF0A082C0AD00199AAEB0100B0EBD5
:10194000540F04D10BF108008A4600F0FF0B08F198
:1019500001005E46C0B280464845B2D3BDE8FC8F68
:101960000122D8E71236000886290008AE2B0008AD
:10197000223000082DE9FF4F81B082460090984642
:101980000C468B46580701D0012100E0002101EBF5
:10199000D80000FB08F900252DE000BFB8F1100FBA
:1019A0002BD118490398002601EB4010475DF8073A
:1019B00001D00E9A02E00E9810B300222146504644
:1019C000FFF7B0FE641C761C7F08F6B2E4B2082E66
:1019D000EDD30AF10100009900F0FF0AAAEB010122
:1019E000414505D10BF10800DDF800A000F0FF0B28
:1019F0006D1C5C46ADB24D45D0D305B0BDE8F08F4F
:101A00000122DBE76E4300082DE9F8411E4615462A
:101A100088460446079F0BE0334641462046009720
:101A2000FFF736FF082E0AD004EB5600C4B26D1C37
:101A30002A78A2F120005E28EED9BDE8F881A41D25
:101A4000E4B2F4E71CB501B140218DF804108DF823
:101A5000050064200090022301AA78210148FEF7C6
:101A600017FF1CBD78000020114808B5816941F0BE
:101A700010018161816901F010010091816941F0DB
:101A800020018161816901F020010091816941F0AB
:101A900008018161816901F008010091816941F0CB
:101AA00004018161806900F00400009008BD00001D
:101AB000001002400D4810B50B4901600C4941600F
:101AC00000214FF480428160C0E9031241618161CD
:101AD000C1610162FEF718FE002803D0BDE8104086
:101AE000FEF708BD10BD000000580040780000203F
:101AF000801A06000C4810B50A4901604FF4E13124
:101B00004160002181600C22C160C0E90412816142
:101B1000C161FFF7D2FB002803D0BDE81040FEF7FB
:101B2000E9BC10BD00380140CC000020FEE7FEE714
:101B300010B5BF2080F31188BFF34F8FBFF36F8FB5
:101B400000F0DEFD18B104494FF08050086000201D
:101B500080F3118810BD000004ED00E030B58FB0B7
:101B600028216846FEF733FB14210AA8FEF72FFB55
:101B700001210804CDE900100024029402250491FB
:101B8000CDE907504FF4E01009906846FFF706F9D9
:101B900008B172B6FEE70F20CDE90A054FF4806068
:101BA000CDE90C4002210AA80E94FEF7FBFF0028A5
:101BB00001D072B6FEE70FB030BD70470148FFF7A5
:101BC000DABA000014010020F0B50268194B1A4C73
:101BD0001A4D4FF08047984205D0B84203D0A0423A
:101BE00001D0A84203D122F070064A6832439842DD
:101BF00005D0B84203D0A04201D0A84203D122F4BC
:101C00004074CA6822434C6922F080022243026079
:101C10008A68C2620A688262984201D109690163D6
:101C2000012141610169C90703D0016921F0010166
:101C30000161F0BD002C014000040040000800409C
:101C400001680C3151E8002F22F4907241E8002322
:101C5000002BF5D10168143151E8002F22F0010268
:101C600041E80023002BF5D1016B012909D101685E
:101C70000C3151E8002F22F0100241E80023002B24
:101C8000F5D1202180F84210002101637047000047
:101C900070B5044600680169E26821F440511143BF
:101CA00001612169A0680843616908432168CA6825
:101CB00041F20C639A430243CA6020684169A269F9
:101CC00021F44071114341611E492068884202D1CC
:101CD000FFF72EF801E0FFF71BF800EBC00101EB66
:101CE0000012606864218000B2FBF0F3B3FBF1F3F3
:101CF0006FF018067343B2FBF0F5B2FBF0F605EB9C
:101D00008305322303EB0515B5FBF1F5B6FBF1F6C0
:101D100005F0F00505EB0615B2FBF0F6B2FBF0F0AE
:101D2000B0FBF1F06FF01802504306EB800003EBBC
:101D30000010B0FBF1F0216800F00F00284488602B
:101D400070BD0000003801402DE9F8439846174661
:101D50000D460446089E24E0701C22D0FEF7CEFCFF
:101D6000A0EB0800B0421AD8CEB12068C16849077C
:101D700017D5802D15D0402D13D00168C943090710
:101D80000FD401680025406800902046FFF758FFF7
:101D90000820606484F840500120BDE8F8830320E7
:101DA000FBE72068006835EA000004D00020B84254
:101DB000D2D00020F1E70120F9E7FEE70FB4054B90
:101DC00010B503A9044A029800F028F810BC5DF889
:101DD00014FB0000D51F0008740000200907090E3D
:101DE000002804DB00F1E02080F80014704700F0C8
:101DF0000F0000F1E02080F8141D704702E008C8D1
:101E0000121F08C1002AFAD170477047002001E074
:101E100001C1121F002AFBD1704700002DE9FF4FBE
:101E20008BB09A460F460546002606E025280BD0C3
:101E300052460D9990476D1C761C28780028F5D1E4
:101E40000FB03046BDE8F08F0024A0460122604963
:101E500000E0044315F8013F203B02FA03F008427A
:101E6000F7D128782E2817D115F8010F44F0040473
:101E70002A280ED06FF02F022878A0F1300109290E
:101E80000AD808EB880102EB410100EB01086D1C48
:101E9000F2E757F8048B6D1C287869283ED006DCE1
:101EA0000028CDD063280BD0642804D136E07328F5
:101EB00010D075284BD052460D999047761C85E07E
:101EC00017F8040B8DF8000000208DF80100E9469A
:101ED000012003E057F8049B4FF0FF3061074FF0FB
:101EE000000401D40AE0641C44450DDA8442FADBA4
:101EF00019F804100029F6D106E0641C8442FCDBCA
:101F000019F804100029F8D1264404E019F8010B4F
:101F100052460D999047641EF8D257E001CF4FF01A
:101F20000A0B002802DA40422D2102E0210504D5E7
:101F30002B218DF82410012103E0E10705D0202199
:101F4000F7E70DF1200908910CE00021F9E701CF36
:101F50004FF00A0BF9E75946FEF74FF901F130024D
:101F600009F8012D0028F6D1ADEB090000F1200B96
:101F7000600701D44FF00108D84502DDA8EB0B0043
:101F800000E000208046002406E009A85246005DDB
:101F90000D999047641C761C08988442F5DB04E098
:101FA000302052460D999047761CB8F10001A8F1F7
:101FB0000108F5DC05E019F8010B52460D99904730
:101FC000761CBBF10001ABF1010BF4DC6D1C34E7B6
:101FD0000928010013B54FF6FF7301226946024834
:101FE000FFF7D6F900981CBDCC000020FEF71EFDBF
:101FF000FFF7B4FDFFF738FDFFF75CFDFFF77AFD53
:102000002F2118A0FEF7EEF828B12F2115A0FEF71A
:10201000E9F8401C00E013A05C21FEF7E3F800287B
:102020004FF02F010FA00BD0FEF7DCF828B12F21C5
:102030000CA0FEF7D7F8401C00E00AA05C2104E0E9
:10204000FEF7D0F828B12F2106A0FEF7CBF8401CF0
:1020500000E004A0014663220748FFF7AFFEFEF749
:1020600085F9FEE72E2E2F436F72652F5372632F73
:102070006D61696E2E630000F04400082DE9F047A1
:10208000204C0F460546E668D4F83490D4F83880E2
:102090002068001D00F0F6F938B9206890F82C107F
:1020A00001208840216981432161681C15D1A7B1B5
:1020B000154922684868906023688268DA6022685F
:1020C0008368121D5A602268121D82602068416177
:1020D0000868401C0860BDE8F08720683544B542B8
:1020E0004560216805D24046BDE8F047091D00F073
:1020F000E9B94846091D00F0E5F9A06A8542EAD22F
:10210000A562E8E714000020100600202DE9F04148
:10211000054600F0EFF9364CA068401CA06020682E
:10212000344F10B1606940B32DE02560A0680128EC
:1021300029D1002606EB860007EB800000F0B4F9F9
:10214000761C052EF6D32B48643000F0ADF92948F3
:10215000783000F0A9F927488C3000F0A5F925481F
:10216000A03000F0A1F92348B43000F09DF92148D7
:10217000643060631430A06305E02068E96AC06AD7
:10218000884200D82560606A401C60626864E96A21
:102190000120226988401043206101EB810007EB98
:1021A00080004068A8608168E9608268291D5160EC
:1021B0008160E86A00EB800007EB8001696157F8F5
:1021C0002010491C47F8201000F0A2F9606900288F
:1021D0000CD02068E96AC06A884207D206494FF0ED
:1021E00080500860BFF34F8FBFF36F8FBDE8F08161
:1021F000140000205C05002004ED00E070B50C4CDC
:102200000C4E11E000F076F9F068C568281D00F06A
:1022100039F9A068401EA0606068401E606000F050
:1022200077F9284600F008F860680028EAD170BD08
:1022300014000020FC05002010B50446006B00F0DF
:1022400071F92046BDE8104000F06CB90E484FF41B
:102250002051420706D0C01D0B4920F00700411A4B
:10226000C1F52051094A00230144C2E9000308399D
:10227000143A21F0070111604B600B600B1AC0E9A2
:10228000001393605360704724060020680000200C
:10229000074C4FF08056074DFFF7B0FF206801282C
:1022A000FAD92E60BFF34F8FBFF36F8FF4E70000B2
:1022B0005C05002004ED00E02DE9F0470D46DDE966
:1022C00009841746824691009946089EA522206BF4
:1022D000FDF776FF6FF00301206B01EB87010844E7
:1022E00020F0070765B100202218295C82F834101D
:1022F000295C11B1401C1028F6D3002084F843005B
:10230000052E00D30426201DE66200F0D8F804F163
:10231000180000F0D4F82461C6F105006462A061E1
:102320004A465146384600F09BF82060B8F1000F4D
:1023300001D0C8F80040BDE8F087000030B5114971
:1023400000E011460A688242FBD34B685C18844265
:1023500003D1406818444860084643681C189442FA
:1023600009D1084C143C2468A24209D052681A448E
:1023700042600A6812680260814200D0086030BD85
:102380000460F9E7680000200548416B096821B145
:10239000416BC9680968816270474FF0FF31FAE705
:1023A00014000020BF2080F31188BFF34F8FBFF3CC
:1023B0006F8FFEE72DE9F04104004FF000060FD0CB
:1023C00014F1090F0BD80834600709D004F0070096
:1023D000C0F10800C1438C4201D8044400E000244D
:1023E00000F01AF91D4D286808B9FFF72FFF002CDF
:1023F0002FDD6B689C422CD81848143001460968C0
:1024000001E0084611464A68A24202D20A68002A40
:10241000F7D12A6891421CD006680A6802604A68AF
:102420000836171B102F05D90A1957604C6004682D
:10243000146002604A68981A6860AB68984200D2DB
:10244000A86042F00040486000200860E868401C36
:10245000E86000F0E9F93046BDE8F0815400002062
:1024600010B5031F4FF080741C601B1F21F0010189
:102470001960191F024B0B60143940380A6010BDF7
:10248000A5230008D0E9013201699A60D0E901234F
:102490005A604A68824201D182684A600022026121
:1024A0000868401E0860704700F108014FF0FF32D5
:1024B000C0E90112C1600161002101607047002183
:1024C0000161704730B50B685A1C02D000F1080258
:1024D00002E0026904E02246546825689D42FAD968
:1024E00053684B6099608A60516008610168491CBB
:1024F000016030BDBF2080F31188BFF34F8FBFF361
:102500006F8F02480168491C01607047700000200D
:1025100003490868401E086001D180F311887047A4
:102520007000002070B500281BD0A0F1080460687E
:10253000002816DA2168002913D120F000406060DD
:1025400000F06AF8074D60686968084468602046D2
:10255000FFF7F4FE2869401C2861BDE8704000F0D8
:1025600063B970BD540000204FF0E02000210161EC
:102570008161024941610721016170473F190100F2
:1025800010B5020009D000F047F800211046FFF70F
:1025900075FD00F049F9002807D104494FF080503B
:1025A0000860BFF34F8FBFF36F8F10BD04ED00E0E5
:1025B00030B587B0002002A913A2125C0A5412B1F0
:1025C000401C1028F8DB13490025CDE900511048C4
:1025D0002B46802202A900F065F80E4C3C3C80B1ED
:1025E00001280ED1BF2080F31188BFF34F8FBFF3B6
:1025F0006F8F4FF0FF30A06201206061E56000F056
:1026000039F8E06A07B030BD49444C45000000008D
:1026100091220008500000200248016B491C016310
:10262000704700001400002010490A6B01F11C00E3
:1026300012B10121016070470022026008690C4A52
:10264000B0FA80F0C0F11F0000EB800002EB8000C8
:1026500000F108034268526842609A4201D1C268A0
:102660004260D068086008687047000014000020CD
:102670005C050020094810B5016841F47F01016044
:10268000016841F07F410160FFF76EFF04490020BF
:102690000860FDF749FD002010BD000020ED00E0BE
:1026A000700000202DE9FF5F8346DDE90E878A4632
:1026B000164699469000FFF77DFE05001DD0542078
:1026C000FFF778FE040015D05421FDF780FD256347
:1026D0000021CDE90241CDE900874B463246514603
:1026E0005846FFF7E9FD2046FFF710FD012004B032
:1026F000BDE8F09F2846FFF715FF4FF0FF30F6E7E3
:102700002DE9F041464C0026206B28B1A069401C01
:10271000A0613046BDE8F081E5686D1CE56008D138
:10272000606BA16B6163A063206A401C2062FFF7AD
:102730002BFEA16A3B488D420FD34FF0000E616B18
:10274000096839B1616BC968C9684A68954214D291
:10275000A26202E04FF0FF31A1622168C96A01EB79
:10276000810150F82100012800D901262C481C3095
:1027700000680028CDD00126CBE7D1E902724B6971
:10278000BA60D1E902277A605F680A1D974201D1D9
:10279000CF685F60C1F814E01F687F1E1F60D1F82A
:1027A00028C0BCF1000F15D0D1E907379F60D1E9EF
:1027B00007377B60DCF8047001F118039F4202D1F7
:1027C0000B6ACCF80430C1F828E0DCF800305B1E5E
:1027D000CCF80030CB6A0127D4F810C09F4047EAFC
:1027E0000C07276103EB830300EB83035B688B60BB
:1027F0009F68CF609F687A609A60CA6A02EB820223
:1028000000EB82034B6150F822305B1C40F8223011
:10281000C96A2268D26A914291D901268FE70000E5
:10282000140000205C0500202DE9F0470024A0469C
:10283000FFF760FE464D0026286B401E2863286B7C
:10284000002807D1A868434AA2464FF0010905F1C4
:102850001C07E8BB77E0D068C468D4E90731A06AF8
:102860009960D4E907135960436804F118018B4259
:1028700001D1216A4160C4F828A001685346491E6D
:102880000160D4E902C06169CCF80800D4E9020C07
:10289000CCF80400D1F804C0201D844503D1D4F83D
:1028A0000CC0C1F804C063610B685B1E0B60E36A77
:1028B000D5F810C009FA03F141EA0C01296103EBD4
:1028C0008301244B8C3B03EB81014968A16000E04C
:1028D0001AE0D1F808C0C4F80CC0D1F808C0CCF890
:1028E00004008860E06A00EB800003EB8001616116
:1028F00053F82010491C43F82010E06A2968C96A7F
:10290000884201D947F8269010680028A3D10CB15D
:10291000FFF73AFDAC6944B1FFF7F2FE08B147F8A2
:102920002690641EF8D1C5F818A057F8260050B1BB
:1029300028684FF0010808494FF080500860BFF345
:102940004F8FBFF36F8FFFF7E3FD4046BDE8F08781
:1029500014000020E805002004ED00E0010202035D
:102960000405060708090A0B0C0D0E0F10100000D5
:10297000000000000000010203040607080900002F
:102980000000010203040000000000000000002F0E
:10299000000000000700070000147F147F140024CB
:1029A0002A7F2A12006264081323003649552250F8
:1029B00000000503000000001C224100000041222D
:1029C0001C000014083E08140008083E0808000017
:1029D00000A060000008080808080000606000000F
:1029E000002010080402003E5149453E0000427F8D
:1029F0004000004261514946002141454B310018D9
:102A000014127F10002745454539003C4A4949309A
:102A10000001710905030036494949360006494954
:102A2000291E00003636000000005636000000085F
:102A3000142241000014141414140000412214083C
:102A400000020151090600324959513E007C121121
:102A5000127C007F49494936003E41414122007FB6
:102A60004141221C007F49494941007F0909090170
:102A7000003E4149497A007F0808087F0000417FF5
:102A80004100002040413F01007F08142241007FA7
:102A900040404040007F020C027F007F0408107F0E
:102AA000003E4141413E007F09090906003E415177
:102AB000215E007F09192946004649494931000134
:102AC000017F0101003F4040403F001F2040201F88
:102AD000003F4038403F006314081463000708704B
:102AE000080700615149454300007F4141000055FE
:102AF0002A552A55000041417F00000402010204CA
:102B000000404040404000000102040000205454B6
:102B10005478007F48444438003844444420003806
:102B20004444487F00385454541800087E09010278
:102B30000018A4A4A47C007F080404780000447D4D
:102B40004000004080847D00007F10284400000089
:102B5000417F4000007C04180478007C080404785D
:102B600000384444443800FC242424180018242449
:102B700018FC007C08040408004854545420000445
:102B80003F444020003C4040207C001C2040201C52
:102B9000003C4030403C004428102844001CA0A0C9
:102BA000A07C004464544C44141414141414000005
:102BB000000000000000000000000000FC00000019
:102BC000000002000000000C020C020000000000E7
:102BD000000090D0BCD0BC9000030003000018247B
:102BE000FE448C000302070201001824D8B04C8078
:102BF000000300010201C038E438E00001020201D4
:102C000002020806000000000000000000000000B2
:102C100000F80402000000010204000204F80000B1
:102C20000004020100009060F860900000000100C4
:102C300000002020FC202000000001000000000017
:102C400000000000080600000000202020202000D6
:102C50000000000000000000000000000002000072
:102C600000000080601C0200040300000000F80463
:102C70000404F8000102020201000008FC00000048
:102C80000002030200001884442418000302020218
:102C9000020008042424D80001020202010040B00E
:102CA00088FC80000000000302003C242424C400AF
:102CB000010202020100F824242CC00001020202D9
:102CC00001000C04E41C0400000003000000D824F0
:102CD0002424D80001020202010038444444F800D0
:102CE00000030202010000001000000000000200CA
:102CF000000000002000000000000600000000208E
:102D00005088040200000000010290909090900012
:102D100000000000000000020488502000020100B2
:102D200000001804C4241800000002000000F80489
:102D3000E494F80001020202020000E09CF080002E
:102D400002030000030204FC2424D8000203020250
:102D50000100F80404040C0001020202010004FC5A
:102D60000404F80002030202010004FC24740C00B5
:102D700002030202030004FC24740C00020302009C
:102D80000000F0080444CC4000010202010004FCF1
:102D90002020FC040203000003020404FC040400DD
:102DA000020203020200000404FC040406040403FB
:102DB000000004FC24D00C0402030200030204FC03
:102DC00004000000020302020203FC3CC03CFC00C1
:102DD00003000300030004FC30C4FC0402030200EF
:102DE0000300F8040404F80001020202010004FCDC
:102DF00024241800020302000000F8848404F80070
:102E000001020207050004FC24649800020302008A
:102E10000302182424448C000302020201000C0463
:102E2000FC040C0000020302000004FC0000FC048F
:102E3000000102020100047C80E01C040000030089
:102E400000001CE03CE01C00000300030000049CA8
:102E5000609C0400020300030200041CE01C040048
:102E60000002030200000C84641C0400020302023E
:102E700003000000FE020200000007040400000E30
:102E800030C00000000000010200000202FE00004D
:102E90000004040700000004020400000000000019
:102EA00000000000000000000808080808080000F2
:102EB000020000000000000000000040A0A0C000D0
:102EC00000010202030204FC2020C00000030202F1
:102ED000010000C02020600000010202020000C0CA
:102EE0002024FC0000010202030200C0A0A0C000D8
:102EF0000001020202000020F82424040002030260
:102F000002000040A0A0602000070A0A0A0404FC96
:102F10002020C0000203020003020020E4000000A1
:102F2000000203020000000020E400000808080777
:102F3000000004FC80E020200203020003020404DD
:102F4000FC000000020203020200E020E020C000BA
:102F500003000300030020E02020C0000203020061
:102F6000030200C02020C00000010202010020E096
:102F70002020C000080F0A02010000C02020E0004D
:102F80000001020A0F0820E0402020000203020096
:102F900000000060A0A02000000202020300002048
:102FA000F820000000000102020020E00020E00004
:102FB00000010202030220E02080602000000301E3
:102FC00000006080E08060000003000300002060DB
:102FD0008060200002030003020020E020806020C7
:102FE0000808070100000020A06020000002030282
:102FF0000200000020DE02000000000704000000C4
:1030000000FF00000000000F00000002DE200000B2
:103010000004070000000201020404020000000096
:1030200000000000000000000000000000000000A0
:103030000000000000F80000000000000033300035
:10304000000000100C06100C06000000000000003C
:10305000000040C07840C0784000043F04043F04B2
:103060000400007088FC08300000001820FF211EBA
:103070000000F008F000E018000000211C031E21F1
:103080001E0000F00888700000001E21232419276C
:10309000211010160E0000000000000000000000CB
:1030A0000000000000E018040200000000071820E3
:1030B000400000020418E000000000402018070053
:1030C0000000404080F0804040000202010F0102F9
:1030D0000200000000F0000000000101011F0101DA
:1030E0000100000000000000000080B0700000003F
:1030F00000000000000000000000000101010101CB
:10310000010100000000000000000030300000005D
:103110000000000000008060180400601806010034
:10312000000000E010080810E000000F1020201040
:103130000F00001010F8000000000020203F2020A9
:103140000000007008080888700000302824222140
:1031500030000030088888483000001820202011F6
:103160000E000000C02010F8000000070424243FD7
:10317000240000F808888808080000192120201180
:103180000E0000E0108888180000000F11202011A8
:103190000E0000380808C83808000000003F000092
:1031A00000000070880808887000001C222121227D
:1031B0001C0000E010080810E0000000312222117D
:1031C0000F00000000C0C000000000000030300010
:1031D000000000000080000000000000806000008F
:1031E00000000000804020100800000102040810C8
:1031F00020004040404040404000040404040404D7
:103200000400000810204080000000201008040284
:103210000100007048080808F00000000030360186
:103220000000C030C828E810E00007182724231445
:103230000B000000C038E0000000203C2302022701
:10324000382008F8888888700000203F202020114E
:103250000E00C03008080808380007182020201089
:10326000080008F808080810E000203F202020107F
:103270000F0008F88888E8081000203F202023204D
:10328000180008F88888E8081000203F2000030094
:103290000000C03008080838000007182020221E4F
:1032A000020008F808000008F808203F2101012169
:1032B0003F20000808F8080800000020203F2020D8
:1032C000000000000808F8080800C08080807F0027
:1032D000000008F888C028180800203F2001263880
:1032E000200008F8080000000000203F20202020D7
:1032F000300008F8F800F8F80800203F003F003FD1
:10330000200008F830C00008F808203F2000071807
:103310003F00E01008080810E0000F1020202010E7
:103320000F0008F808080808F000203F21010101FB
:103330000000E01008080810E0000F18242438509E
:103340004F0008F8888888887000203F2000030C10
:103350003020007088080808380000382021212219
:103360001C00180808F8080818000000203F20007A
:10337000000008F808000008F808001F202020209E
:103380001F000878880000C83808000007380E01C0
:103390000000F80800F80008F800033C0700073CAC
:1033A0000300081868808068180820302C03032C5C
:1033B00030200838C800C83808000000203F20002E
:1033C000000010080808C8380800203826212020EE
:1033D0001800000000FE020202000000007F4040D2
:1033E0004000000C30C00000000000000001063862
:1033F000C00000020202FE000000004040407F00CA
:1034000000000000040202020400000000000000AE
:1034100000000000000000000000808080808080AC
:103420008080000202040000000000000000000094
:1034300000000000808080800000001924222222E9
:103440003F2008F8008080000000003F112020117C
:103450000E000000008080800000000E112020205F
:103460001100000000808088F800000E112020105C
:103470003F200000808080800000001F2222222246
:103480001300008080F0888888180020203F2020CA
:1034900000000000808080808000006B94949493F2
:1034A000600008F8008080800000203F210000209C
:1034B0003F2000809898000000000020203F20203E
:1034C0000000000000809898000000C08080807F8D
:1034D000000008F8000080808000203F24022D308A
:1034E0002000000808F8000000000020203F2020F5
:1034F00000008080808080808000203F20003F206E
:10350000003F8080008080800000203F210000205C
:103510003F200000808080800000001F20202020AD
:103520001F00808000808000000080FFA12020110B
:103530000E000000008080808000000E112020A07E
:10354000FF80808080008080800020203F2120003C
:103550000100000080808080800000332424242427
:103560001900008080E0808000000000001F202003
:1035700000008080000000808000001F20202010BC
:103580003F20808080000080808000010E3008068F
:10359000010080800080008080800F300C030C30A0
:1035A0000F0000808000808080000020312E0E31CE
:1035B0002000808080000080808080818E701806CE
:1035C000010000808080808080000021302C22213A
:1035D000300000000000807C020200000000003F7C
:1035E000404000000000FF00000000000000FF005D
:1035F00000000002027C800000000040403F00000C
:1036000000000006010102020404000000000000A6
:1036100000000000000000000000000000000000AA
:10362000000000000000000000000000000000009A
:103630000000000000000000000000F0F0F00000BA
:1036400000000000000000017F01000000000000F9
:103650000000001C1C1C0000000000008060301CEA
:103660008C60301C0C000000000000000000000016
:10367000000000000000000000000000000000004A
:1036800000E00000000000E000000086E69F868663
:103690008686E69F860000011F01010101011F01CE
:1036A0000100000080C06020F820E0C000000000A1
:1036B00003070C18FF70E18100000000070F1010D5
:1036C0007F100F0700008060206080000000E02075
:1036D00000000F3020309F70DC371030C000000039
:1036E000100E03000718101807000000C02020E08B
:1036F000C0000000000080E01F38E88703C43C04DD
:103700000000070F1810100B070D101008000080A4
:103710008C4C380000000000000000000000000099
:103720000000000000000000000000000000000099
:10373000000000000000000080E0300804000000ED
:10374000000000FEFF01000000000000000000007B
:10375000030F1820400000040830E0800000000043
:1037600000000000000001FFFE000000000000401B
:1037700020180F03000000000000000000000000FF
:10378000C00000000000004266663C18FF183C665E
:10379000664200000000000003000000000000007E
:1037A0000000000080000000000000101010101049
:1037B000FF101010101000000000000003000000B7
:1037C00000000000000000000000000000000000F9
:1037D0000000000000000000000000808C4C380059
:1037E00000000000000000000000000000000000D9
:1037F0000000001010101010101010101000000029
:1038000000000000000000000000000000000000B8
:1038100000000000000000000000000000000000A8
:10382000000000001C1C1C00000000000000000044
:10383000000000000000E0380C0000000000807074
:103840001C03000000000060380E010000000000B2
:103850000000000080C060202060C080000000FEEA
:10386000FF010000000001FFFE000001070E18101C
:1038700010180E0701000000808080C0E0000000EA
:1038800000000000000000FFFF000000000000003A
:103890001010101F1F10101000000080402020206A
:1038A0002060C080000000030300804020381F0714
:1038B0000000001C1A1918181818181F00000080A2
:1038C000C020202060C08000000000030300101012
:1038D000182FE780000000070F10101010180F07B6
:1038E0000000000000000000C0E0F000000000C088
:1038F000B088868180FFFF808000000000000010FB
:10390000101F1F1010000000E060606060606060C9
:10391000000000003F1008080818F0E00000000751
:103920000B101010101C0F030000000080C040207E
:103930002020E0C0000000FCFF211008080818F05B
:10394000E0000001070C18101010080F0300000021
:10395000C0E06060606060E06000000003000000A4
:10396000E0180700000000000000001F1F0000001A
:1039700000000080C0602020202060C08000008700
:10398000EF2C1818303068CF830000070F08101094
:103990001010180F07000000C0C020202020C08099
:1039A0000000001F3F604040402010FFFE0000006C
:1039B0000C1C101010080F03000000000000000095
:1039C00000000000000000000000000E0E0E0000CD
:1039D000000000000000001C1C1C00000000000093
:1039E0000000000000000000000000000000000CCB
:1039F0000C0000000000000000000058380000002B
:103A000000000000000000000080402010000000C6
:103A100010284482010000000000000000000000A7
:103A20000102040810000000000000000000000077
:103A3000000000848484848484848484840000005E
:103A40000000000000000000000000001020408086
:103A50000000000000000000000000000182442877
:103A6000100000001008040201000000000000C067
:103A700020201010101030E0C0000003030000F000
:103A800010080C070300000000001C1C1C000000B4
:103A90000000000000C0406020202040C00000FC6A
:103AA000FF01F00E03C1FE03807F0001070E081125
:103AB0001110110904020000000080E0E000000085
:103AC00000000000807C4340477FF8800000101811
:103AD0001F1000000000131F1C1020E0E020202019
:103AE0002060C080000000FFFF10101010182FE7AA
:103AF0008000101F1F1010101010180F070000007A
:103B000080C0402020202060E00000FCFF01000079
:103B10000000000001000001070E1810101008043A
:103B2000030020E0E02020202040C080000000FFB3
:103B3000FF000000000001FFFE00101F1F1010100A
:103B400018080E07010020E0E0202020202020603F
:103B5000800000FFFF101010107C00000000101FFC
:103B60001F10101010101018060020E0E020202078
:103B700020206060800000FFFF101010107C00000B
:103B80000100101F1F1000000000000000000000D6
:103B900080C06020202040E0000000FCFF01000009
:103BA0004040C0C140400001070E181010100F0F18
:103BB000000020E0E0200000000020E0E02000FF06
:103BC000FF101010101010FFFF00101F1F1000003A
:103BD0000000101F1F100000202020E0E020202007
:103BE00000000000000000FFFF00000000000000D7
:103BF0001010101F1F1010100000000000002020E7
:103C000020E0E020202000000000000000FFFF0076
:103C100000000060E0808080C07F3F00000020E066
:103C2000E020000020A06020200000FFFF30187C72
:103C3000E3C000000000101F1F10000001131F1C34
:103C4000181020E0E020000000000000000000FF4D
:103C5000FF000000000000000000101F1F101010E7
:103C600010101018060020E0E0E000000000E0E086
:103C7000E02000FF013FFEC0E01E01FFFF00101F1B
:103C80001000031F0300101F1F1020E0E0C0000001
:103C900000000020E02000FF0003071C78E0800007
:103CA000FF00101F100000000000030F1F000000A5
:103CB00080C060202060C080000000FEFF01000086
:103CC000000000FFFE000001070E181010180C077E
:103CD000010020E0E0202020202060C0800000FFC4
:103CE000FF2020202020301F0F00101F1F10000079
:103CF000000000000000000080C060202060C08044
:103D0000000000FEFF010000000000FFFE000001B7
:103D1000070E1111133C7C67210020E0E0202020D9
:103D2000202060C0800000FFFF101030F0D0080F8E
:103D30000700101F1F10000000030F1C1010008050
:103D4000C060202020204040E00000070F0C181821
:103D5000303060E08100001F0C0810101010180FA8
:103D600007008060202020E0E0202020608001000B
:103D7000000000FFFF000000000100000000101F15
:103D80001F100000000020E0E020000000000020E4
:103D9000E02000FFFF00000000000000FF0000071F
:103DA0000F1810101010100807002060E0E020002D
:103DB000000020E060200000077FF88000807C0386
:103DC000000000000000071F1C070000000020E0AA
:103DD000E02000E0E0200020E0200007FFF8E01FE6
:103DE000FFFCE01F00000000031F0300011F030091
:103DF0000000002060E0A0000020E0602000000043
:103E000000038F7CF8C6010000000010181E13008C
:103E100001171F1810002060E0E02000000020E0E3
:103E20006020000001073EF8E018070000000000D5
:103E30000010101F1F1010000000008060202020C4
:103E400020A0E0E0200000000000C0F03E0F0300D2
:103E5000000000101C1F17101010101806000000A2
:103E6000000000FC0404040404000000000000FF43
:103E700000000000000000000000007F40404040C3
:103E80004000000010E00000000000000000000002
:103E90000000031C60800000000000000000000023
:103EA00000030C70800000000404040404FC000003
:103EB000000000000000000000FF00000000000003
:103EC00040404040407F0000000000000010080C0F
:103ED000040C0810000000000000000000000000BA
:103EE00000000000000000000000000000000000D2
:103EF00000000000000000000000000000000000C2
:103F000000000000000080808080808080808080B1
:103F10008080000000040408080000000000000089
:103F20000000000000000000000000000000000091
:103F30000000000000000000000000000000000081
:103F40000000000098D844642424FCF80000000F0E
:103F50001F18101010081F1F10180020E0F000009C
:103F60000000000000000000FFFF180804040CF827
:103F7000F00000001F0F18101010180F03000000B1
:103F80000000000000000000000000E0F818040439
:103F9000043C3800000000030F0C1010101008063D
:103FA00000000000000000000020E0F0000000E041
:103FB000F81C04040408FFFF000000030F18101091
:103FC00010081F0F080000000000000000000000A3
:103FD00000000000E0F8484444444C7870000000C1
:103FE000030F0C181010100804000000000080C01F
:103FF000602020E0C00000040404FFFF0404040467
:104000000000000010101F1F101010000000000022
:1040100000000000000000000000000070F88C04A8
:10402000048CF874040C007076CF8D8D8D89C8785F
:1040300070000020E0F00000000000000000000020
:10404000FFFF08040404FCF8000000101F1F10000C
:1040500000101F1F10000000000000606000000042
:1040600000000000040404FCFC000000000000004C
:104070001010101F1F1010100000000000000000A2
:1040800000606000000000000000040404FCFC006C
:1040900000000000C0C08080C07F3F000000002002
:1040A000E0F000000000000000000000FFFF80C002
:1040B000F41C0404000000101F1F1100031F1C103B
:1040C00010000000202020E0F000000000000000B0
:1040D000000000FFFF000000000000001010101F93
:1040E0001F10101000000000000000000000000081
:1040F000000004FCFC0804FCFC0804FCFC00101F8D
:104100001F10001F1F10001F1F10000000000000E4
:104110000000000000000004FCFC08080404FCF897
:10412000000000101F1F100000101F1F10000000D3
:104130000000000000000000000000E0F0180C0487
:10414000040C18F0E00000030F0C101010100C0FFE
:104150000300000000000000000000000000000458
:10416000FCFC080404040CF8F0000080FFFF8890B9
:1041700010101C0F030000000000000000000000F1
:10418000000000E0F81C04040408F8FC0000000330
:104190000F1810109088FFFF800000000000000042
:1041A000000000000000040404FCFC100804040CDF
:1041B0000C001010101F1F10101000000000000055
:1041C0000000000000000000000000003078CCC4B7
:1041D0008484840C1C0000001E1810101011190F8C
:1041E00006000000000000C0000000000000000405
:1041F0000404FFFF040404000000000000000F1F7F
:104200001010100C00000000000000000000000072
:1042100000000004FCFE00000004FCFE00000000A2
:104220000F1F181010081F0F0800000000000000EA
:1042300000000000000000040C3CFCC40000C43C72
:104240000C0400000000010F1E0E01000000000021
:1042500000000000000000000000043CFCC400E47A
:104260007CFC84807C040000071F070000071F07F8
:10427000000000000000000000000000000000043A
:10428000041C7CE4C0341C0404000010101C160143
:10429000131F1C18100000000000000000000000A8
:1042A000000000040C3CFCC400C43C0404000000FA
:1042B000C080C1370E0100000000000000000000B7
:1042C00000000000000000001C0404C4F47C1C0476
:1042D00000000000101C1F17111010180E00000025
:1042E0000000000000F80C040000000000000010B6
:1042F00028EF00000000000000000000003F6040C8
:104300000000000000000000FF00000000000000AE
:1043100000000000FF00000000000000000000009E
:10432000FF00000000000000040CF8000000000086
:10433000000000000000EF28100000000000000056
:1043400040603F0000000000000000180602020468
:1043500008102020300800000000000000000000CD
:10436000000000000000000000000000000000004D
:10437000E2242820203F20202824E2000000000022
:10438000FF00001F1111111F40807F00000004E496
:104390005C44C400404444447F4444444000013FE2
:1043A00010103F00404444447F4444444000001007
:1043B00088844320100C10204182840800000101F1
:1043C00000FE42424242424242FE00010100080811
:1043D00008F8080800F2121AD61212F20200103081
:1043E000100F0808804F20180710204F8000000091
:1043F000FE222222222222222222FE00000000008F
:10440000FF424242424242424242FF00000000005C
:10441000809E929292929292929E8000000084845A
:10442000444424140C070C142444448484000404DD
:1044300014D45454545E545454D4140404000494B6
:10444000543D179515F505F5979594F40400080863
:10445000F808080008FE48484848FE0800002161A6
:104460003F111100109F521212529F1010000000B5
:1044700000FE92929292929292FE000000000282BE
:10448000423A428202FE1212121212020200404806
:104490004848FC46444040FE40445840400000101C
:1044A0009008FF048280402718284483F000000011
:1044B0000000FE00000000FE000000000000008080
:1044C00040300F000000007F80808080F0008082FC
:1044D0008282828282E2A2928A86828080000000AA
:1044E00000000040807F000000000000000000008D
:1044F0005B25733A25645D203D3D3D3D3D3D3D3DA1
:104500003D3D3D3D3D3D3D3D3D3D3D3D3D3D507293
:104510006F6A6563742053746172743D3D3D3D3D27
:104520003D3D3D3D3D3D3D3D3D3D3D3D3D3D3D3DBB
:104530003D0A0000544500080000002078000000FB
:10454000FC1D0008CC45000878000020B0350000B4
:104550000C1E000801000000100000000000000018
:1045600000127A00000000000000000000000000BF
:10457000000000000000000000000000000000003B
:10458000000000000000000000000000000000002B
:104590000000000004000000000000000000000017
:1045A000000000000000000000000000000000000B
:1045B00000000000000000000000000000000000FB
:0C45C00000000000AAAAAAAA0000000047
:04000005080000ED02
:00000001FF
